{
  "contractName": "LicenseMain",
  "abi": [
    {
      "constant": true,
      "inputs": [
        {
          "name": "user",
          "type": "address"
        },
        {
          "name": "_licenseID",
          "type": "uint256"
        }
      ],
      "name": "generatePermissionHash",
      "outputs": [
        {
          "name": "",
          "type": "bytes32"
        }
      ],
      "payable": false,
      "stateMutability": "view",
      "type": "function"
    },
    {
      "constant": true,
      "inputs": [
        {
          "name": "_holder",
          "type": "address"
        },
        {
          "name": "_productID",
          "type": "uint256"
        },
        {
          "name": "_specID",
          "type": "uint256"
        }
      ],
      "name": "userHasValidLicense",
      "outputs": [
        {
          "name": "",
          "type": "bool"
        }
      ],
      "payable": false,
      "stateMutability": "view",
      "type": "function"
    },
    {
      "constant": true,
      "inputs": [
        {
          "name": "_holder",
          "type": "address"
        },
        {
          "name": "_productID",
          "type": "uint256"
        },
        {
          "name": "_specID",
          "type": "uint256"
        }
      ],
      "name": "findLicenseID",
      "outputs": [
        {
          "name": "",
          "type": "uint256"
        }
      ],
      "payable": false,
      "stateMutability": "view",
      "type": "function"
    },
    {
      "constant": false,
      "inputs": [
        {
          "name": "_holder",
          "type": "address"
        },
        {
          "name": "_licenseID",
          "type": "uint256"
        },
        {
          "name": "v",
          "type": "uint8"
        },
        {
          "name": "r",
          "type": "bytes32"
        },
        {
          "name": "s",
          "type": "bytes32"
        }
      ],
      "name": "verifyLicense",
      "outputs": [
        {
          "name": "",
          "type": "bool"
        }
      ],
      "payable": false,
      "stateMutability": "nonpayable",
      "type": "function"
    },
    {
      "constant": false,
      "inputs": [],
      "name": "renounceOwnership",
      "outputs": [],
      "payable": false,
      "stateMutability": "nonpayable",
      "type": "function"
    },
    {
      "constant": true,
      "inputs": [],
      "name": "owner",
      "outputs": [
        {
          "name": "",
          "type": "address"
        }
      ],
      "payable": false,
      "stateMutability": "view",
      "type": "function"
    },
    {
      "constant": true,
      "inputs": [],
      "name": "isOwner",
      "outputs": [
        {
          "name": "",
          "type": "bool"
        }
      ],
      "payable": false,
      "stateMutability": "view",
      "type": "function"
    },
    {
      "constant": false,
      "inputs": [
        {
          "name": "_productID",
          "type": "uint256"
        },
        {
          "name": "_specID",
          "type": "uint256"
        }
      ],
      "name": "issueLicense",
      "outputs": [],
      "payable": true,
      "stateMutability": "payable",
      "type": "function"
    },
    {
      "constant": false,
      "inputs": [
        {
          "name": "newOwner",
          "type": "address"
        }
      ],
      "name": "transferOwnership",
      "outputs": [],
      "payable": false,
      "stateMutability": "nonpayable",
      "type": "function"
    },
    {
      "inputs": [
        {
          "name": "_erc721",
          "type": "address"
        }
      ],
      "payable": false,
      "stateMutability": "nonpayable",
      "type": "constructor"
    },
    {
      "anonymous": false,
      "inputs": [
        {
          "indexed": true,
          "name": "owner",
          "type": "address"
        },
        {
          "indexed": true,
          "name": "productID",
          "type": "uint256"
        },
        {
          "indexed": false,
          "name": "specID",
          "type": "uint256"
        },
        {
          "indexed": false,
          "name": "licenseID",
          "type": "uint256"
        }
      ],
      "name": "LicenseIssued",
      "type": "event"
    },
    {
      "anonymous": false,
      "inputs": [
        {
          "indexed": true,
          "name": "productID",
          "type": "uint256"
        },
        {
          "indexed": true,
          "name": "specID",
          "type": "uint256"
        },
        {
          "indexed": false,
          "name": "attributes",
          "type": "uint256"
        },
        {
          "indexed": false,
          "name": "name",
          "type": "string"
        },
        {
          "indexed": false,
          "name": "price",
          "type": "uint256"
        },
        {
          "indexed": false,
          "name": "duration",
          "type": "uint256"
        }
      ],
      "name": "SpecsRegistered",
      "type": "event"
    },
    {
      "anonymous": false,
      "inputs": [
        {
          "indexed": true,
          "name": "previousOwner",
          "type": "address"
        },
        {
          "indexed": true,
          "name": "newOwner",
          "type": "address"
        }
      ],
      "name": "OwnershipTransferred",
      "type": "event"
    },
    {
      "constant": false,
      "inputs": [
        {
          "name": "_name",
          "type": "string"
        }
      ],
      "name": "registerVendor",
      "outputs": [],
      "payable": false,
      "stateMutability": "nonpayable",
      "type": "function"
    },
    {
      "constant": false,
      "inputs": [
        {
          "name": "_name",
          "type": "string"
        }
      ],
      "name": "registerProduct",
      "outputs": [],
      "payable": false,
      "stateMutability": "nonpayable",
      "type": "function"
    },
    {
      "constant": false,
      "inputs": [
        {
          "name": "_productID",
          "type": "uint256"
        },
        {
          "name": "_attributes",
          "type": "uint256"
        },
        {
          "name": "_name",
          "type": "string"
        },
        {
          "name": "_price",
          "type": "uint256"
        },
        {
          "name": "_duration",
          "type": "uint256"
        }
      ],
      "name": "registerLicenseSpecs",
      "outputs": [],
      "payable": false,
      "stateMutability": "nonpayable",
      "type": "function"
    },
    {
      "constant": true,
      "inputs": [
        {
          "name": "_vendorId",
          "type": "uint256"
        }
      ],
      "name": "vendorName",
      "outputs": [
        {
          "name": "",
          "type": "string"
        }
      ],
      "payable": false,
      "stateMutability": "view",
      "type": "function"
    },
    {
      "constant": true,
      "inputs": [
        {
          "name": "_prodID",
          "type": "uint256"
        }
      ],
      "name": "productInfo",
      "outputs": [
        {
          "name": "",
          "type": "uint256"
        },
        {
          "name": "",
          "type": "uint256"
        },
        {
          "name": "",
          "type": "uint256"
        },
        {
          "name": "",
          "type": "string"
        }
      ],
      "payable": false,
      "stateMutability": "view",
      "type": "function"
    },
    {
      "constant": true,
      "inputs": [
        {
          "name": "_productID",
          "type": "uint256"
        },
        {
          "name": "_specID",
          "type": "uint256"
        }
      ],
      "name": "licenseSpecsInfo",
      "outputs": [
        {
          "name": "",
          "type": "uint256"
        },
        {
          "name": "",
          "type": "uint256"
        },
        {
          "name": "",
          "type": "uint256"
        },
        {
          "name": "",
          "type": "string"
        }
      ],
      "payable": false,
      "stateMutability": "view",
      "type": "function"
    },
    {
      "constant": true,
      "inputs": [
        {
          "name": "_licenseID",
          "type": "uint256"
        }
      ],
      "name": "licenseInfo",
      "outputs": [
        {
          "name": "",
          "type": "uint256"
        },
        {
          "name": "",
          "type": "uint256"
        },
        {
          "name": "",
          "type": "uint256"
        },
        {
          "name": "",
          "type": "uint256"
        }
      ],
      "payable": false,
      "stateMutability": "view",
      "type": "function"
    }
  ],
  "bytecode": "0x60806040523480156200001157600080fd5b5060405160208062003d67833981018060405260208110156200003357600080fd5b810190808051906020019092919050505080336000806101000a81548173ffffffffffffffffffffffffffffffffffffffff021916908373ffffffffffffffffffffffffffffffffffffffff1602179055506000809054906101000a900473ffffffffffffffffffffffffffffffffffffffff1673ffffffffffffffffffffffffffffffffffffffff16600073ffffffffffffffffffffffffffffffffffffffff167f8be0079c531659141344cd1fd0a4f28419497f9722a3daafe3b4186f6b6457e060405160405180910390a3600160030160009054906101000a900460ff161562000188576040517f08c379a00000000000000000000000000000000000000000000000000000000081526004018080602001828103825260138152602001807f416c726561647920696e697469616c697a65640000000000000000000000000081525060200191505060405180910390fd5b60018060030160006101000a81548160ff02191690831515021790555080600960006101000a81548173ffffffffffffffffffffffffffffffffffffffff021916908373ffffffffffffffffffffffffffffffffffffffff160217905550506200022d6040518060400160405280600a81526020017f526f6f7456656e646f72000000000000000000000000000000000000000000008152506200027a60201b60201c565b620002736040518060400160405280600b81526020017f526f6f7450726f647563740000000000000000000000000000000000000000008152506200029860201b60201c565b5062000949565b62000295816001620002b660201b62002a201790919060201c565b50565b620002b3816001620004f360201b620023231790919060201c565b50565b620002c882336200074960201b60201c565b156200033c576040517f08c379a00000000000000000000000000000000000000000000000000000000081526004018080602001828103825260158152602001807f56656e646f7220616c726561647920657869737473000000000000000000000081525060200191505060405180910390fd5b6200035b600183600001546200079760201b620021641790919060201c565b826000018190555060008260000154905060405180604001604052806000604051908082528060200260200182016040528015620003a85781602001602082028038833980820191505090505b508152602001838152508360040160008381526020019081526020016000206000820151816000019080519060200190620003e592919062000820565b5060208201518160010190805190602001906200040492919062000872565b50905050808360050160003373ffffffffffffffffffffffffffffffffffffffff1673ffffffffffffffffffffffffffffffffffffffff16815260200190815260200160002081905550807f2b3e75d4417af2715688fe83d387844a936fd4aaeb250a3ad15dbefa95ce4f24836040518080602001828103825283818151815260200191508051906020019080838360005b83811015620004b357808201518184015260208101905062000496565b50505050905090810190601f168015620004e15780820380516001836020036101000a031916815260200191505b509250505060405180910390a2505050565b60008260050160003373ffffffffffffffffffffffffffffffffffffffff1673ffffffffffffffffffffffffffffffffffffffff16815260200190815260200160002054905060008111620005b0576040517f08c379a00000000000000000000000000000000000000000000000000000000081526004018080602001828103825260178152602001807f4e6f74206120726567697374657265642076656e646f7200000000000000000081525060200191505060405180910390fd5b60008360040160008381526020019081526020016000209050620005e8600185600101546200079760201b620021641790919060201c565b846001018190555060008460010154905062000603620008f9565b838160000181815250508481606001819052508086600701600084815260200190815260200160002060008201518160000155602082015181600101556040820151816002015560608201518160030190805190602001906200066892919062000872565b50905050826000018290806001815401808255809150509060018203906000526020600020016000909192909190915055507ffe5345b00afbb8e30dd35f9905f6d7917ea45ca811cbcdb0de19673accc660fb82866040518083815260200180602001828103825283818151815260200191508051906020019080838360005b8381101562000705578082015181840152602081019050620006e8565b50505050905090810190601f168015620007335780820380516001836020036101000a031916815260200191505b50935050505060405180910390a1505050505050565b6000808360050160008473ffffffffffffffffffffffffffffffffffffffff1673ffffffffffffffffffffffffffffffffffffffff1681526020019081526020016000205411905092915050565b60008082840190508381101562000816576040517f08c379a000000000000000000000000000000000000000000000000000000000815260040180806020018281038252601b8152602001807f536166654d6174683a206164646974696f6e206f766572666c6f77000000000081525060200191505060405180910390fd5b8091505092915050565b8280548282559060005260206000209081019282156200085f579160200282015b828111156200085e57825182559160200191906001019062000841565b5b5090506200086e919062000921565b5090565b828054600181600116156101000203166002900490600052602060002090601f016020900481019282601f10620008b557805160ff1916838001178555620008e6565b82800160010185558215620008e6579182015b82811115620008e5578251825591602001919060010190620008c8565b5b509050620008f5919062000921565b5090565b6040518060800160405280600081526020016000815260200160008152602001606081525090565b6200094691905b808211156200094257600081600090555060010162000928565b5090565b90565b61340e80620009596000396000f3fe6080604052600436106100f35760003560e01c80636cbe760d1161008a578063bb119f6e11610059578063bb119f6e14610731578063e538109a146107fa578063ea0f543b146108c2578063f2fde38b146108fa576100f3565b80636cbe760d146105c1578063715018a6146106945780638da5cb5b146106ab5780638f32d59b14610702576100f3565b80633e34cf0a116100c65780633e34cf0a1461033857806340791f3a146103b1578063517497da14610445578063660930e8146104f9576100f3565b8063056df274146100f85780631e084558146101e857806332342b7f1461024c5780633bba1451146102bb575b600080fd5b34801561010457600080fd5b506101e6600480360360a081101561011b57600080fd5b8101908080359060200190929190803590602001909291908035906020019064010000000081111561014c57600080fd5b82018360208201111561015e57600080fd5b8035906020019184600183028401116401000000008311171561018057600080fd5b91908080601f016020809104026020016040519081016040528093929190818152602001838380828437600081840152601f19601f820116905080830192505050505050509192919290803590602001909291908035906020019092919050505061094b565b005b3480156101f457600080fd5b506102216004803603602081101561020b57600080fd5b810190808035906020019092919050505061096e565b6040518085815260200184815260200183815260200182815260200194505050505060405180910390f35b34801561025857600080fd5b506102a56004803603604081101561026f57600080fd5b81019080803573ffffffffffffffffffffffffffffffffffffffff16906020019092919080359060200190929190505050610997565b6040518082815260200191505060405180910390f35b3480156102c757600080fd5b5061031e600480360360608110156102de57600080fd5b81019080803573ffffffffffffffffffffffffffffffffffffffff1690602001909291908035906020019092919080359060200190929190505050610cf8565b604051808215151515815260200191505060405180910390f35b34801561034457600080fd5b5061039b6004803603606081101561035b57600080fd5b81019080803573ffffffffffffffffffffffffffffffffffffffff1690602001909291908035906020019092919080359060200190929190505050610f9a565b6040518082815260200191505060405180910390f35b3480156103bd57600080fd5b5061042b600480360360a08110156103d457600080fd5b81019080803573ffffffffffffffffffffffffffffffffffffffff16906020019092919080359060200190929190803560ff169060200190929190803590602001909291908035906020019092919050505061120e565b604051808215151515815260200191505060405180910390f35b34801561045157600080fd5b5061047e6004803603602081101561046857600080fd5b8101908080359060200190929190505050611836565b6040518080602001828103825283818151815260200191508051906020019080838360005b838110156104be5780820151818401526020810190506104a3565b50505050905090810190601f1680156104eb5780820380516001836020036101000a031916815260200191505b509250505060405180910390f35b34801561050557600080fd5b506105bf6004803603602081101561051c57600080fd5b810190808035906020019064010000000081111561053957600080fd5b82018360208201111561054b57600080fd5b8035906020019184600183028401116401000000008311171561056d57600080fd5b91908080601f016020809104026020016040519081016040528093929190818152602001838380828437600081840152601f19601f820116905080830192505050505050509192919290505050611853565b005b3480156105cd57600080fd5b50610604600480360360408110156105e457600080fd5b81019080803590602001909291908035906020019092919050505061186a565b6040518085815260200184815260200183815260200180602001828103825283818151815260200191508051906020019080838360005b8381101561065657808201518184015260208101905061063b565b50505050905090810190601f1680156106835780820380516001836020036101000a031916815260200191505b509550505050505060405180910390f35b3480156106a057600080fd5b506106a9611898565b005b3480156106b757600080fd5b506106c06119d1565b604051808273ffffffffffffffffffffffffffffffffffffffff1673ffffffffffffffffffffffffffffffffffffffff16815260200191505060405180910390f35b34801561070e57600080fd5b506107176119fa565b604051808215151515815260200191505060405180910390f35b34801561073d57600080fd5b5061076a6004803603602081101561075457600080fd5b8101908080359060200190929190505050611a51565b6040518085815260200184815260200183815260200180602001828103825283818151815260200191508051906020019080838360005b838110156107bc5780820151818401526020810190506107a1565b50505050905090810190601f1680156107e95780820380516001836020036101000a031916815260200191505b509550505050505060405180910390f35b34801561080657600080fd5b506108c06004803603602081101561081d57600080fd5b810190808035906020019064010000000081111561083a57600080fd5b82018360208201111561084c57600080fd5b8035906020019184600183028401116401000000008311171561086e57600080fd5b91908080601f016020809104026020016040519081016040528093929190818152602001838380828437600081840152601f19601f820116905080830192505050505050509192919290505050611a7b565b005b6108f8600480360360408110156108d857600080fd5b810190808035906020019092919080359060200190929190505050611a92565b005b34801561090657600080fd5b506109496004803603602081101561091d57600080fd5b81019080803573ffffffffffffffffffffffffffffffffffffffff169060200190929190505050611b98565b005b61096785858585856001611c1e9095949392919063ffffffff16565b5050505050565b600080600080610988856001611f6f90919063ffffffff16565b93509350935093509193509193565b6000808211610a0e576040517f08c379a00000000000000000000000000000000000000000000000000000000081526004018080602001828103825260128152602001807f496e76616c6964204c6963656e7365204944000000000000000000000000000081525060200191505060405180910390fd5b60006001600601600084815260200190815260200160002090506000816000015411610aa2576040517f08c379a000000000000000000000000000000000000000000000000000000000815260040180806020018281038252600f8152602001807f556e6b6e6f776e206c6963656e7365000000000000000000000000000000000081525060200191505060405180910390fd5b6000600160070160008360000154815260200190815260200160002090506000816000015411610b3a576040517f08c379a00000000000000000000000000000000000000000000000000000000081526004018080602001828103825260148152602001807f556e726567697374657265642050726f6475637400000000000000000000000081525060200191505060405180910390fd5b60008160040160008460010154815260200190815260200160002090508060030160009054906101000a900460ff16610bdb576040517f08c379a00000000000000000000000000000000000000000000000000000000081526004018080602001828103825260148152602001807f556e6b6e6f776e206c6963656e7365207370656300000000000000000000000081525060200191505060405180910390fd5b60008160050160008873ffffffffffffffffffffffffffffffffffffffff1673ffffffffffffffffffffffffffffffffffffffff168152602001908152602001600020905085816000015414610c7c576040517f08c379a000000000000000000000000000000000000000000000000000000000815260040180806020018281038252603a815260200180613363603a913960400191505060405180910390fd5b600081600101549050878782604051602001808473ffffffffffffffffffffffffffffffffffffffff1673ffffffffffffffffffffffffffffffffffffffff1660601b81526014018381526020018281526020019350505050604051602081830303815290604052805190602001209550505050505092915050565b6000803073ffffffffffffffffffffffffffffffffffffffff16633e34cf0a8686866040518463ffffffff1660e01b8152600401808473ffffffffffffffffffffffffffffffffffffffff1673ffffffffffffffffffffffffffffffffffffffff168152602001838152602001828152602001935050505060206040518083038186803b158015610d8857600080fd5b505afa158015610d9c573d6000803e3d6000fd5b505050506040513d6020811015610db257600080fd5b810190808051906020019092919050505090506000811415610e3c576040517f08c379a00000000000000000000000000000000000000000000000000000000081526004018080602001828103825260108152602001807f4e6f206c6963656e736520666f756e640000000000000000000000000000000081525060200191505060405180910390fd5b6000811415610e4f576000915050610f93565b6000600160060160008381526020019081526020016000209050600081600001541415610ee4576040517f08c379a000000000000000000000000000000000000000000000000000000000815260040180806020018281038252600f8152602001807f496e76616c6964206c6963656e7365000000000000000000000000000000000081525060200191505060405180910390fd5b600081600001541415610efc57600092505050610f93565b42816002015411610f75576040517f08c379a000000000000000000000000000000000000000000000000000000000815260040180806020018281038252600f8152602001807f4c6963656e73652065787069726564000000000000000000000000000000000081525060200191505060405180910390fd5b4281600201541115610f8c57600092505050610f93565b6001925050505b9392505050565b6000808311611011576040517f08c379a00000000000000000000000000000000000000000000000000000000081526004018080602001828103825260138152602001807f496e76616c69642070726f64756374204944490000000000000000000000000081525060200191505060405180910390fd5b60008211611087576040517f08c379a000000000000000000000000000000000000000000000000000000000815260040180806020018281038252600f8152602001807f496e76616c69642073706563204944000000000000000000000000000000000081525060200191505060405180910390fd5b6000600160070160008581526020019081526020016000209050600081600001541161111b576040517f08c379a00000000000000000000000000000000000000000000000000000000081526004018080602001828103825260148152602001807f556e726567697374657265642070726f6475637400000000000000000000000081525060200191505060405180910390fd5b600081600401600085815260200190815260200160002090508060030160009054906101000a900460ff166111b8576040517f08c379a000000000000000000000000000000000000000000000000000000000815260040180806020018281038252600f8152602001807f496e76616c69642073706563204944000000000000000000000000000000000081525060200191505060405180910390fd5b60008160050160008873ffffffffffffffffffffffffffffffffffffffff1673ffffffffffffffffffffffffffffffffffffffff1681526020019081526020016000209050806000015493505050509392505050565b6000808511611285576040517f08c379a00000000000000000000000000000000000000000000000000000000081526004018080602001828103825260128152602001807f496e76616c6964206c6963656e7365204944000000000000000000000000000081525060200191505060405180910390fd5b60006001600601600087815260200190815260200160002090506000816000015411611319576040517f08c379a00000000000000000000000000000000000000000000000000000000081526004018080602001828103825260128152602001807f496e76616c6964206c6963656e7365204944000000000000000000000000000081525060200191505060405180910390fd5b60006001600701600083600001548152602001908152602001600020905060008160000154116113b1576040517f08c379a000000000000000000000000000000000000000000000000000000000815260040180806020018281038252600f8152602001807f556e6b6e6f776e2050726f64756374000000000000000000000000000000000081525060200191505060405180910390fd5b60008160040160008460010154815260200190815260200160002090508060030160009054906101000a900460ff16611452576040517f08c379a00000000000000000000000000000000000000000000000000000000081526004018080602001828103825260148152602001807f556e6b6e6f776e204c6963656e7365205370656300000000000000000000000081525060200191505060405180910390fd5b60008160050160008b73ffffffffffffffffffffffffffffffffffffffff1673ffffffffffffffffffffffffffffffffffffffff168152602001908152602001600020905060008160000154116114f4576040517f08c379a000000000000000000000000000000000000000000000000000000000815260040180806020018281038252604681526020018061339d6046913960600191505060405180910390fd5b60006115008b8b610997565b905060606040518060400160405280601c81526020017f19457468657265756d205369676e6564204d6573736167653a0a33320000000081525090506000600182846040516020018083805190602001908083835b602083106115785780518252602082019150602081019050602083039250611555565b6001836020036101000a03801982511681845116808217855250505050505090500182815260200192505050604051602081830303815290604052805190602001208c8c8c60405160008152602001604052604051808581526020018460ff1660ff1681526020018381526020018281526020019450505050506020604051602081039080840390855afa158015611614573d6000803e3d6000fd5b5050506020604051035190508c73ffffffffffffffffffffffffffffffffffffffff168173ffffffffffffffffffffffffffffffffffffffff16146116c1576040517f08c379a00000000000000000000000000000000000000000000000000000000081526004018080602001828103825260118152602001807f496e76616c6964207369676e617475726500000000000000000000000000000081525060200191505060405180910390fd5b6000600960009054906101000a900473ffffffffffffffffffffffffffffffffffffffff1673ffffffffffffffffffffffffffffffffffffffff16636352211e8e6040518263ffffffff1660e01b81526004018082815260200191505060206040518083038186803b15801561173657600080fd5b505afa15801561174a573d6000803e3d6000fd5b505050506040513d602081101561176057600080fd5b810190808051906020019092919050505090508173ffffffffffffffffffffffffffffffffffffffff168173ffffffffffffffffffffffffffffffffffffffff16146117b75760009850505050505050505061182d565b6000600160060160008f81526020019081526020016000209050600081600201541180156117e85750428160020154105b156117ff576000995050505050505050505061182d565b6118176001876001015461216490919063ffffffff16565b8660010181905550600199505050505050505050505b95945050505050565b606061184c8260016121ec90919063ffffffff16565b9050919050565b61186781600161232390919063ffffffff16565b50565b600080600060606118878686600161256a9092919063ffffffff16565b935093509350935092959194509250565b6118a06119fa565b611912576040517f08c379a00000000000000000000000000000000000000000000000000000000081526004018080602001828103825260208152602001807f4f776e61626c653a2063616c6c6572206973206e6f7420746865206f776e657281525060200191505060405180910390fd5b600073ffffffffffffffffffffffffffffffffffffffff166000809054906101000a900473ffffffffffffffffffffffffffffffffffffffff1673ffffffffffffffffffffffffffffffffffffffff167f8be0079c531659141344cd1fd0a4f28419497f9722a3daafe3b4186f6b6457e060405160405180910390a360008060006101000a81548173ffffffffffffffffffffffffffffffffffffffff021916908373ffffffffffffffffffffffffffffffffffffffff160217905550565b60008060009054906101000a900473ffffffffffffffffffffffffffffffffffffffff16905090565b60008060009054906101000a900473ffffffffffffffffffffffffffffffffffffffff1673ffffffffffffffffffffffffffffffffffffffff163373ffffffffffffffffffffffffffffffffffffffff1614905090565b60008060006060611a6c85600161284f90919063ffffffff16565b93509350935093509193509193565b611a8f816001612a2090919063ffffffff16565b50565b6000611aac8383346001612c45909392919063ffffffff16565b9050600960009054906101000a900473ffffffffffffffffffffffffffffffffffffffff1673ffffffffffffffffffffffffffffffffffffffff166340c10f1933836040518363ffffffff1660e01b8152600401808373ffffffffffffffffffffffffffffffffffffffff1673ffffffffffffffffffffffffffffffffffffffff16815260200182815260200192505050602060405180830381600087803b158015611b5757600080fd5b505af1158015611b6b573d6000803e3d6000fd5b505050506040513d6020811015611b8157600080fd5b810190808051906020019092919050505050505050565b611ba06119fa565b611c12576040517f08c379a00000000000000000000000000000000000000000000000000000000081526004018080602001828103825260208152602001807f4f776e61626c653a2063616c6c6572206973206e6f7420746865206f776e657281525060200191505060405180910390fd5b611c1b81613090565b50565b60008511611c94576040517f08c379a00000000000000000000000000000000000000000000000000000000081526004018080602001828103825260128152602001807f496e76616c69642050726f64756374204944000000000000000000000000000081525060200191505060405180910390fd5b611c9e86336131d4565b611d10576040517f08c379a00000000000000000000000000000000000000000000000000000000081526004018080602001828103825260178152602001807f4e6f74206120726567697374657265642076656e646f7200000000000000000081525060200191505060405180910390fd5b60008660050160003373ffffffffffffffffffffffffffffffffffffffff1673ffffffffffffffffffffffffffffffffffffffff1681526020019081526020016000205490506000876007016000888152602001908152602001600020905080600001548214611de8576040517f08c379a00000000000000000000000000000000000000000000000000000000081526004018080602001828103825260118152602001807f4e6f742070726f64756374206f776e657200000000000000000000000000000081525060200191505060405180910390fd5b611e006001826001015461216490919063ffffffff16565b81600101819055506000816001015490506040518060a001604052808681526020018881526020018581526020016001151581526020018781525082600401600083815260200190815260200160002060008201518160000155602082015181600101556040820151816002015560608201518160030160006101000a81548160ff0219169083151502179055506080820151816004019080519060200190611eaa929190613222565b5090505080887f2e11fd987fb0d47c66d2c22d51781a9a0d68b11ab597275fe27b485af1c3ea86898989896040518085815260200180602001848152602001838152602001828103825285818151815260200191508051906020019080838360005b83811015611f27578082015181840152602081019050611f0c565b50505050905090810190601f168015611f545780820380516001836020036101000a031916815260200191505b509550505050505060405180910390a3505050505050505050565b60008060008060008511611feb576040517f08c379a00000000000000000000000000000000000000000000000000000000081526004018080602001828103825260128152602001807f496e76616c6964204c6963656e7365204944000000000000000000000000000081525060200191505060405180910390fd5b60008660060160008781526020019081526020016000209050600081600101541161207e576040517f08c379a00000000000000000000000000000000000000000000000000000000081526004018080602001828103825260128152602001807f496e76616c6964206c6963656e7365204944000000000000000000000000000081525060200191505060405180910390fd5b600087600701600083600001548152602001908152602001600020905060008160040160008460010154815260200190815260200160002090508060030160009054906101000a900460ff1661213c576040517f08c379a00000000000000000000000000000000000000000000000000000000081526004018080602001828103825260128152602001807f496e76616c6964204c6973656e7365204944000000000000000000000000000081525060200191505060405180910390fd5b8260000154816001015484600201548560030154965096509650965050505092959194509250565b6000808284019050838110156121e2576040517f08c379a000000000000000000000000000000000000000000000000000000000815260040180806020018281038252601b8152602001807f536166654d6174683a206164646974696f6e206f766572666c6f77000000000081525060200191505060405180910390fd5b8091505092915050565b606060008211612264576040517f08c379a00000000000000000000000000000000000000000000000000000000081526004018080602001828103825260118152602001807f496e76616c69642056656e646f7220494400000000000000000000000000000081525060200191505060405180910390fd5b60008360040160008481526020019081526020016000209050806001018054600181600116156101000203166002900480601f0160208091040260200160405190810160405280929190818152602001828054600181600116156101000203166002900480156123155780601f106122ea57610100808354040283529160200191612315565b820191906000526020600020905b8154815290600101906020018083116122f857829003601f168201915b505050505091505092915050565b60008260050160003373ffffffffffffffffffffffffffffffffffffffff1673ffffffffffffffffffffffffffffffffffffffff168152602001908152602001600020549050600081116123df576040517f08c379a00000000000000000000000000000000000000000000000000000000081526004018080602001828103825260178152602001807f4e6f74206120726567697374657265642076656e646f7200000000000000000081525060200191505060405180910390fd5b600083600401600083815260200190815260200160002090506124106001856001015461216490919063ffffffff16565b84600101819055506000846001015490506124296132a2565b8381600001818152505084816060018190525080866007016000848152602001908152602001600020600082015181600001556020820151816001015560408201518160020155606082015181600301908051906020019061248c929190613222565b50905050826000018290806001815401808255809150509060018203906000526020600020016000909192909190915055507ffe5345b00afbb8e30dd35f9905f6d7917ea45ca811cbcdb0de19673accc660fb82866040518083815260200180602001828103825283818151815260200191508051906020019080838360005b8381101561252757808201518184015260208101905061250c565b50505050905090810190601f1680156125545780820380516001836020036101000a031916815260200191505b50935050505060405180910390a1505050505050565b60008060006060600086116125e7576040517f08c379a00000000000000000000000000000000000000000000000000000000081526004018080602001828103825260128152602001807f496e76616c69642050726f64756374204944000000000000000000000000000081525060200191505060405180910390fd5b6000851161265d576040517f08c379a00000000000000000000000000000000000000000000000000000000081526004018080602001828103825260128152602001807f496e76616c69642050726f64756374204944000000000000000000000000000081525060200191505060405180910390fd5b6000876007016000888152602001908152602001600020905060008160000154116126f0576040517f08c379a00000000000000000000000000000000000000000000000000000000081526004018080602001828103825260148152602001807f556e726567697374657265642070726f6475637400000000000000000000000081525060200191505060405180910390fd5b600081600401600088815260200190815260200160002090508060030160009054906101000a900460ff1661278d576040517f08c379a00000000000000000000000000000000000000000000000000000000081526004018080602001828103825260148152602001807f556e6b6e6f776e206c6963656e7365207370656300000000000000000000000081525060200191505060405180910390fd5b80600001548160010154826002015483600401808054600181600116156101000203166002900480601f0160208091040260200160405190810160405280929190818152602001828054600181600116156101000203166002900480156128355780601f1061280a57610100808354040283529160200191612835565b820191906000526020600020905b81548152906001019060200180831161281857829003601f168201915b505050505090509550955095509550505093509350935093565b60008060006060600085116128cc576040517f08c379a00000000000000000000000000000000000000000000000000000000081526004018080602001828103825260128152602001807f496e76616c69642050726f64756374204944000000000000000000000000000081525060200191505060405180910390fd5b60008660070160008781526020019081526020016000209050600081600001541161295f576040517f08c379a00000000000000000000000000000000000000000000000000000000081526004018080602001828103825260148152602001807f556e726567697374657265642050726f6475637400000000000000000000000081525060200191505060405180910390fd5b80600001548160010154826002015483600301808054600181600116156101000203166002900480601f016020809104026020016040519081016040528092919081815260200182805460018160011615610100020316600290048015612a075780601f106129dc57610100808354040283529160200191612a07565b820191906000526020600020905b8154815290600101906020018083116129ea57829003601f168201915b5050505050905094509450945094505092959194509250565b612a2a82336131d4565b15612a9d576040517f08c379a00000000000000000000000000000000000000000000000000000000081526004018080602001828103825260158152602001807f56656e646f7220616c726561647920657869737473000000000000000000000081525060200191505060405180910390fd5b612ab56001836000015461216490919063ffffffff16565b826000018190555060008260000154905060405180604001604052806000604051908082528060200260200182016040528015612b015781602001602082028038833980820191505090505b508152602001838152508360040160008381526020019081526020016000206000820151816000019080519060200190612b3c9291906132ca565b506020820151816001019080519060200190612b59929190613222565b50905050808360050160003373ffffffffffffffffffffffffffffffffffffffff1673ffffffffffffffffffffffffffffffffffffffff16815260200190815260200160002081905550807f2b3e75d4417af2715688fe83d387844a936fd4aaeb250a3ad15dbefa95ce4f24836040518080602001828103825283818151815260200191508051906020019080838360005b83811015612c06578082015181840152602081019050612beb565b50505050905090810190601f168015612c335780820380516001836020036101000a031916815260200191505b509250505060405180910390a2505050565b6000808411612cbc576040517f08c379a00000000000000000000000000000000000000000000000000000000081526004018080602001828103825260128152602001807f496e76616c69642050726f64756374204944000000000000000000000000000081525060200191505060405180910390fd5b60008311612d32576040517f08c379a000000000000000000000000000000000000000000000000000000000815260040180806020018281038252600f8152602001807f496e76616c69642053706563204944000000000000000000000000000000000081525060200191505060405180910390fd5b600085600701600086815260200190815260200160002090506000816000015411612dc5576040517f08c379a00000000000000000000000000000000000000000000000000000000081526004018080602001828103825260148152602001807f556e726567697374657265642050726f6475637400000000000000000000000081525060200191505060405180910390fd5b600081600401600086815260200190815260200160002090508060030160009054906101000a900460ff16612e62576040517f08c379a000000000000000000000000000000000000000000000000000000000815260040180806020018281038252600c8152602001807f556e6b6e6f776e2053706563000000000000000000000000000000000000000081525060200191505060405180910390fd5b600081600001541115612ee95783816000015414612ee8576040517f08c379a00000000000000000000000000000000000000000000000000000000081526004018080602001828103825260208152602001807f496e73756666696369656e74207061796d656e7420666f72206c6963656e736581525060200191505060405180910390fd5b5b612f016001886002015461216490919063ffffffff16565b876002018190555060008760020154905060405180608001604052808881526020018781526020016000846002015411612f3c576000612f54565b612f5384600201544261216490919063ffffffff16565b5b81526020014381525088600601600083815260200190815260200160002060008201518160000155602082015181600101556040820151816002015560608201518160030155905050612fb56001846002015461216490919063ffffffff16565b8360020181905550604051806040016040528082815260200160008152508260050160003373ffffffffffffffffffffffffffffffffffffffff1673ffffffffffffffffffffffffffffffffffffffff1681526020019081526020016000206000820151816000015560208201518160010155905050863373ffffffffffffffffffffffffffffffffffffffff167fc17d9be5d9e09d511942c21bf0eda8cc8034a97283edec1f909c8b051b5e014e8884604051808381526020018281526020019250505060405180910390a3809350505050949350505050565b600073ffffffffffffffffffffffffffffffffffffffff168173ffffffffffffffffffffffffffffffffffffffff161415613116576040517f08c379a000000000000000000000000000000000000000000000000000000000815260040180806020018281038252602681526020018061333d6026913960400191505060405180910390fd5b8073ffffffffffffffffffffffffffffffffffffffff166000809054906101000a900473ffffffffffffffffffffffffffffffffffffffff1673ffffffffffffffffffffffffffffffffffffffff167f8be0079c531659141344cd1fd0a4f28419497f9722a3daafe3b4186f6b6457e060405160405180910390a3806000806101000a81548173ffffffffffffffffffffffffffffffffffffffff021916908373ffffffffffffffffffffffffffffffffffffffff16021790555050565b6000808360050160008473ffffffffffffffffffffffffffffffffffffffff1673ffffffffffffffffffffffffffffffffffffffff1681526020019081526020016000205411905092915050565b828054600181600116156101000203166002900490600052602060002090601f016020900481019282601f1061326357805160ff1916838001178555613291565b82800160010185558215613291579182015b82811115613290578251825591602001919060010190613275565b5b50905061329e9190613317565b5090565b6040518060800160405280600081526020016000815260200160008152602001606081525090565b828054828255906000526020600020908101928215613306579160200282015b828111156133055782518255916020019190600101906132ea565b5b5090506133139190613317565b5090565b61333991905b8082111561333557600081600090555060010161331d565b5090565b9056fe4f776e61626c653a206e6577206f776e657220697320746865207a65726f20616464726573734c6963656e736520494420646f65736e2774206d617463682072656769737465726564206174747269627574657320666f72206c6963656e73654d7573742072657175657374206c6f676963207065726d697373696f6e2068617368206265666f726520617474656d7074696e6720746f20766572696679206c6963656e7365a165627a7a7230582018e2693ea10e4453f0de27fbd8e013ed8d5a23044b0689c47400fc2a302c986a0029",
  "source": "pragma solidity >=0.4.21 <0.6.0;\n\nimport \"../node_modules/@openzeppelin/contracts/ownership/Ownable.sol\";\n\nimport \"./LicenseToken.sol\";\nimport \"./libraries/LicenseStorage.sol\";\nimport \"./libraries/LicenseLogic.sol\";\nimport \"./LicenseManager.sol\";\n\ncontract LicenseMain is Ownable, LicenseManager {\n    using LicenseLogic for LicenseStorage.MainStorage;\n    \n    /**\n     * @dev init initializes the license management contract with an initial root vendor/product\n     * owned by the contract owner.\n     */\n    constructor(LicenseToken _erc721) LicenseManager(_erc721) public {\n        registerVendor(\"RootVendor\");\n        registerProduct(\"RootProduct\");\n    }\n\n    /**\n    * @dev register a new vendor with the contract. Throws if address already registered as vendor.\n     */\n    function registerVendor(string memory _name) public {\n        mainStorage.addVendor(_name);\n    }\n\n    /**\n     * @dev register a new product. Caller must be a valid vendor address.\n     */\n    function registerProduct(string memory _name) public {\n        mainStorage.addProduct(_name);\n    }\n\n    /**\n     * @dev register new license specs for a product. Caller must be a registered vendor\n     * that owns the given product.\n     */\n    function registerLicenseSpecs(uint256 _productID,\n                                  uint256 _attributes,\n                                  string memory _name,\n                                  uint256 _price,\n                                  uint256 _duration) public {\n        mainStorage.addLicenseSpecs(_productID, _attributes, _name, _price, _duration);\n    }\n\n     /**\n     * @dev get the name of a vendor by its id.\n     * @param _vendorId is registered vendor id\n     */\n    function vendorName(uint256 _vendorId) public view returns(string memory) {\n        return mainStorage.vendorName(_vendorId);\n    }\n\n     /**\n     * @dev Get product vendor, spec count, license count, and name registered with the given id\n     * @param _prodID is product id\n     */\n    function productInfo(uint256 _prodID)\n            public view returns(uint256, uint256, uint256, string memory) {\n        return mainStorage.productInfo(_prodID);\n    }\n\n    /**\n     * @dev get license specification information based on its product and spec IDs\n     * @param _productID is the id for the product that owns the spec\n     * @param _specID is the license spec id\n     */\n    function licenseSpecsInfo(uint256 _productID, uint256 _specID)\n            public view returns(uint256, uint256, uint256, string memory) {\n        return mainStorage.licenseSpecsInfo(_productID, _specID);\n    }\n\n    /**\n     * @dev get license product ID, attributes, expiration, and issued block based on its id\n     * @param _licenseID is the license id to query\n    */\n    function licenseInfo(uint256 _licenseID)\n            public view returns(uint256, uint256, uint256, uint256) {\n        return mainStorage.licenseInfo(_licenseID);\n    }\n\n}\n\n",
  "sourcePath": "/Users/mdcoon/git/app_license_demo/packages/ald-contracts/contracts/LicenseMain.sol",
  "compiler": {
    "name": "solc",
    "version": "0.5.8+commit.23d335f2.Emscripten.clang"
  },
  "schemaVersion": "3.0.11",
  "updatedAt": "2019-08-12T12:30:43.828Z",
  "devdoc": {
    "methods": {
      "constructor": {
        "details": "init initializes the license management contract with an initial root vendor/product owned by the contract owner."
      },
      "findLicenseID(address,uint256,uint256)": {
        "details": "find a license ID held by the given address for the given product and license specification IDs. A non-zero return value indicates the user holds a license for the items, but the license needs to be verified for expiration, etc."
      },
      "generatePermissionHash(address,uint256)": {
        "details": "generatePermissionHash generates a unique hash that must be signed by the given user to verify license ownership.",
        "params": {
          "_licenseID": "is the license id that will be verified",
          "user": "is the user that will sign the returned hash"
        }
      },
      "isOwner()": {
        "details": "Returns true if the caller is the current owner."
      },
      "issueLicense(uint256,uint256)": {
        "details": "issue a new license for the caller for the given product based on the given license specification.",
        "params": {
          "_productID": "is the product id for which a license is being issued",
          "_specID": "is the specification for the license being purchased"
        }
      },
      "licenseInfo(uint256)": {
        "details": "get license product ID, attributes, expiration, and issued block based on its id",
        "params": {
          "_licenseID": "is the license id to query"
        }
      },
      "licenseSpecsInfo(uint256,uint256)": {
        "details": "get license specification information based on its product and spec IDs",
        "params": {
          "_productID": "is the id for the product that owns the spec",
          "_specID": "is the license spec id"
        }
      },
      "owner()": {
        "details": "Returns the address of the current owner."
      },
      "productInfo(uint256)": {
        "details": "Get product vendor, spec count, license count, and name registered with the given id",
        "params": {
          "_prodID": "is product id"
        }
      },
      "registerLicenseSpecs(uint256,uint256,string,uint256,uint256)": {
        "details": "register new license specs for a product. Caller must be a registered vendor that owns the given product."
      },
      "registerProduct(string)": {
        "details": "register a new product. Caller must be a valid vendor address."
      },
      "registerVendor(string)": {
        "details": "register a new vendor with the contract. Throws if address already registered as vendor."
      },
      "renounceOwnership()": {
        "details": "Leaves the contract without owner. It will not be possible to call `onlyOwner` functions anymore. Can only be called by the current owner.     * > Note: Renouncing ownership will leave the contract without an owner, thereby removing any functionality that is only available to the owner."
      },
      "transferOwnership(address)": {
        "details": "Transfers ownership of the contract to a new account (`newOwner`). Can only be called by the current owner."
      },
      "userHasValidLicense(address,uint256,uint256)": {
        "details": "check whether the given user has a valid license for the given product and specification IDs. NOTE: This does not authenticate the given address and only verifies that the address as an unexpired license for the given IDs. To authenticate user access, use the verifyLicense function instead."
      },
      "vendorName(uint256)": {
        "details": "get the name of a vendor by its id.",
        "params": {
          "_vendorId": "is registered vendor id"
        }
      },
      "verifyLicense(address,uint256,uint8,bytes32,bytes32)": {
        "details": "verify that an address, who signed the given token hash, owns a license for the given product/spec id combination. This will also verify that the license has not expired.",
        "params": {
          "_holder": "is the address to verify which must have also signed the given token",
          "_licenseID": "is the license ID to verify",
          "r": "is part of sig",
          "s": "is part of sig",
          "v": "is part of sig"
        }
      }
    }
  },
  "userdoc": {
    "methods": {}
  }
}