{
  "contractName": "LicenseManager",
  "abi": [
    {
      "inputs": [
        {
          "name": "_erc721",
          "type": "address"
        }
      ],
      "payable": false,
      "stateMutability": "nonpayable",
      "type": "constructor"
    },
    {
      "anonymous": false,
      "inputs": [
        {
          "indexed": true,
          "name": "owner",
          "type": "address"
        },
        {
          "indexed": true,
          "name": "productID",
          "type": "uint256"
        },
        {
          "indexed": false,
          "name": "specID",
          "type": "uint256"
        },
        {
          "indexed": false,
          "name": "licenseID",
          "type": "uint256"
        }
      ],
      "name": "LicenseIssued",
      "type": "event"
    },
    {
      "anonymous": false,
      "inputs": [
        {
          "indexed": true,
          "name": "productID",
          "type": "uint256"
        },
        {
          "indexed": true,
          "name": "specID",
          "type": "uint256"
        },
        {
          "indexed": false,
          "name": "attributes",
          "type": "uint256"
        },
        {
          "indexed": false,
          "name": "name",
          "type": "string"
        },
        {
          "indexed": false,
          "name": "price",
          "type": "uint256"
        },
        {
          "indexed": false,
          "name": "duration",
          "type": "uint256"
        }
      ],
      "name": "SpecsRegistered",
      "type": "event"
    },
    {
      "constant": false,
      "inputs": [
        {
          "name": "_productID",
          "type": "uint256"
        },
        {
          "name": "_specID",
          "type": "uint256"
        }
      ],
      "name": "issueLicense",
      "outputs": [],
      "payable": true,
      "stateMutability": "payable",
      "type": "function"
    },
    {
      "constant": true,
      "inputs": [
        {
          "name": "_holder",
          "type": "address"
        },
        {
          "name": "_productID",
          "type": "uint256"
        },
        {
          "name": "_specID",
          "type": "uint256"
        }
      ],
      "name": "findLicenseID",
      "outputs": [
        {
          "name": "",
          "type": "uint256"
        }
      ],
      "payable": false,
      "stateMutability": "view",
      "type": "function"
    },
    {
      "constant": true,
      "inputs": [
        {
          "name": "_holder",
          "type": "address"
        },
        {
          "name": "_productID",
          "type": "uint256"
        },
        {
          "name": "_specID",
          "type": "uint256"
        }
      ],
      "name": "userHasValidLicense",
      "outputs": [
        {
          "name": "",
          "type": "bool"
        }
      ],
      "payable": false,
      "stateMutability": "view",
      "type": "function"
    },
    {
      "constant": false,
      "inputs": [
        {
          "name": "_holder",
          "type": "address"
        },
        {
          "name": "_licenseID",
          "type": "uint256"
        },
        {
          "name": "v",
          "type": "uint8"
        },
        {
          "name": "r",
          "type": "bytes32"
        },
        {
          "name": "s",
          "type": "bytes32"
        }
      ],
      "name": "verifyLicense",
      "outputs": [
        {
          "name": "",
          "type": "bool"
        }
      ],
      "payable": false,
      "stateMutability": "nonpayable",
      "type": "function"
    },
    {
      "constant": true,
      "inputs": [
        {
          "name": "user",
          "type": "address"
        },
        {
          "name": "_licenseID",
          "type": "uint256"
        }
      ],
      "name": "generatePermissionHash",
      "outputs": [
        {
          "name": "",
          "type": "bytes32"
        }
      ],
      "payable": false,
      "stateMutability": "view",
      "type": "function"
    }
  ],
  "bytecode": "0x608060405234801561001057600080fd5b506040516020806118d38339810180604052602081101561003057600080fd5b8101908080519060200190929190505050600060030160009054906101000a900460ff16156100c7576040517f08c379a00000000000000000000000000000000000000000000000000000000081526004018080602001828103825260138152602001807f416c726561647920696e697469616c697a65640000000000000000000000000081525060200191505060405180910390fd5b6001600060030160006101000a81548160ff02191690831515021790555080600860006101000a81548173ffffffffffffffffffffffffffffffffffffffff021916908373ffffffffffffffffffffffffffffffffffffffff1602179055505061179d806101366000396000f3fe60806040526004361061004a5760003560e01c806332342b7f1461004f5780633bba1451146100be5780633e34cf0a1461013b57806340791f3a146101b4578063ea0f543b14610248575b600080fd5b34801561005b57600080fd5b506100a86004803603604081101561007257600080fd5b81019080803573ffffffffffffffffffffffffffffffffffffffff16906020019092919080359060200190929190505050610280565b6040518082815260200191505060405180910390f35b3480156100ca57600080fd5b50610121600480360360608110156100e157600080fd5b81019080803573ffffffffffffffffffffffffffffffffffffffff16906020019092919080359060200190929190803590602001909291905050506105df565b604051808215151515815260200191505060405180910390f35b34801561014757600080fd5b5061019e6004803603606081101561015e57600080fd5b81019080803573ffffffffffffffffffffffffffffffffffffffff1690602001909291908035906020019092919080359060200190929190505050610880565b6040518082815260200191505060405180910390f35b3480156101c057600080fd5b5061022e600480360360a08110156101d757600080fd5b81019080803573ffffffffffffffffffffffffffffffffffffffff16906020019092919080359060200190929190803560ff1690602001909291908035906020019092919080359060200190929190505050610af3565b604051808215151515815260200191505060405180910390f35b61027e6004803603604081101561025e57600080fd5b810190808035906020019092919080359060200190929190505050611118565b005b60008082116102f7576040517f08c379a00000000000000000000000000000000000000000000000000000000081526004018080602001828103825260128152602001807f496e76616c6964204c6963656e7365204944000000000000000000000000000081525060200191505060405180910390fd5b60008060060160008481526020019081526020016000209050600081600001541161038a576040517f08c379a000000000000000000000000000000000000000000000000000000000815260040180806020018281038252600f8152602001807f556e6b6e6f776e206c6963656e7365000000000000000000000000000000000081525060200191505060405180910390fd5b60008060070160008360000154815260200190815260200160002090506000816000015411610421576040517f08c379a00000000000000000000000000000000000000000000000000000000081526004018080602001828103825260148152602001807f556e726567697374657265642050726f6475637400000000000000000000000081525060200191505060405180910390fd5b60008160040160008460010154815260200190815260200160002090508060030160009054906101000a900460ff166104c2576040517f08c379a00000000000000000000000000000000000000000000000000000000081526004018080602001828103825260148152602001807f556e6b6e6f776e206c6963656e7365207370656300000000000000000000000081525060200191505060405180910390fd5b60008160050160008873ffffffffffffffffffffffffffffffffffffffff1673ffffffffffffffffffffffffffffffffffffffff168152602001908152602001600020905085816000015414610563576040517f08c379a000000000000000000000000000000000000000000000000000000000815260040180806020018281038252603a8152602001806116f2603a913960400191505060405180910390fd5b600081600101549050878782604051602001808473ffffffffffffffffffffffffffffffffffffffff1673ffffffffffffffffffffffffffffffffffffffff1660601b81526014018381526020018281526020019350505050604051602081830303815290604052805190602001209550505050505092915050565b6000803073ffffffffffffffffffffffffffffffffffffffff16633e34cf0a8686866040518463ffffffff1660e01b8152600401808473ffffffffffffffffffffffffffffffffffffffff1673ffffffffffffffffffffffffffffffffffffffff168152602001838152602001828152602001935050505060206040518083038186803b15801561066f57600080fd5b505afa158015610683573d6000803e3d6000fd5b505050506040513d602081101561069957600080fd5b810190808051906020019092919050505090506000811415610723576040517f08c379a00000000000000000000000000000000000000000000000000000000081526004018080602001828103825260108152602001807f4e6f206c6963656e736520666f756e640000000000000000000000000000000081525060200191505060405180910390fd5b6000811415610736576000915050610879565b600080600601600083815260200190815260200160002090506000816000015414156107ca576040517f08c379a000000000000000000000000000000000000000000000000000000000815260040180806020018281038252600f8152602001807f496e76616c6964206c6963656e7365000000000000000000000000000000000081525060200191505060405180910390fd5b6000816000015414156107e257600092505050610879565b4281600201541161085b576040517f08c379a000000000000000000000000000000000000000000000000000000000815260040180806020018281038252600f8152602001807f4c6963656e73652065787069726564000000000000000000000000000000000081525060200191505060405180910390fd5b428160020154111561087257600092505050610879565b6001925050505b9392505050565b60008083116108f7576040517f08c379a00000000000000000000000000000000000000000000000000000000081526004018080602001828103825260138152602001807f496e76616c69642070726f64756374204944490000000000000000000000000081525060200191505060405180910390fd5b6000821161096d576040517f08c379a000000000000000000000000000000000000000000000000000000000815260040180806020018281038252600f8152602001807f496e76616c69642073706563204944000000000000000000000000000000000081525060200191505060405180910390fd5b600080600701600085815260200190815260200160002090506000816000015411610a00576040517f08c379a00000000000000000000000000000000000000000000000000000000081526004018080602001828103825260148152602001807f556e726567697374657265642070726f6475637400000000000000000000000081525060200191505060405180910390fd5b600081600401600085815260200190815260200160002090508060030160009054906101000a900460ff16610a9d576040517f08c379a000000000000000000000000000000000000000000000000000000000815260040180806020018281038252600f8152602001807f496e76616c69642073706563204944000000000000000000000000000000000081525060200191505060405180910390fd5b60008160050160008873ffffffffffffffffffffffffffffffffffffffff1673ffffffffffffffffffffffffffffffffffffffff1681526020019081526020016000209050806000015493505050509392505050565b6000808511610b6a576040517f08c379a00000000000000000000000000000000000000000000000000000000081526004018080602001828103825260128152602001807f496e76616c6964206c6963656e7365204944000000000000000000000000000081525060200191505060405180910390fd5b600080600601600087815260200190815260200160002090506000816000015411610bfd576040517f08c379a00000000000000000000000000000000000000000000000000000000081526004018080602001828103825260128152602001807f496e76616c6964206c6963656e7365204944000000000000000000000000000081525060200191505060405180910390fd5b60008060070160008360000154815260200190815260200160002090506000816000015411610c94576040517f08c379a000000000000000000000000000000000000000000000000000000000815260040180806020018281038252600f8152602001807f556e6b6e6f776e2050726f64756374000000000000000000000000000000000081525060200191505060405180910390fd5b60008160040160008460010154815260200190815260200160002090508060030160009054906101000a900460ff16610d35576040517f08c379a00000000000000000000000000000000000000000000000000000000081526004018080602001828103825260148152602001807f556e6b6e6f776e204c6963656e7365205370656300000000000000000000000081525060200191505060405180910390fd5b60008160050160008b73ffffffffffffffffffffffffffffffffffffffff1673ffffffffffffffffffffffffffffffffffffffff16815260200190815260200160002090506000816000015411610dd7576040517f08c379a000000000000000000000000000000000000000000000000000000000815260040180806020018281038252604681526020018061172c6046913960600191505060405180910390fd5b6000610de38b8b610280565b905060606040518060400160405280601c81526020017f19457468657265756d205369676e6564204d6573736167653a0a33320000000081525090506000600182846040516020018083805190602001908083835b60208310610e5b5780518252602082019150602081019050602083039250610e38565b6001836020036101000a03801982511681845116808217855250505050505090500182815260200192505050604051602081830303815290604052805190602001208c8c8c60405160008152602001604052604051808581526020018460ff1660ff1681526020018381526020018281526020019450505050506020604051602081039080840390855afa158015610ef7573d6000803e3d6000fd5b5050506020604051035190508c73ffffffffffffffffffffffffffffffffffffffff168173ffffffffffffffffffffffffffffffffffffffff1614610fa4576040517f08c379a00000000000000000000000000000000000000000000000000000000081526004018080602001828103825260118152602001807f496e76616c6964207369676e617475726500000000000000000000000000000081525060200191505060405180910390fd5b6000600860009054906101000a900473ffffffffffffffffffffffffffffffffffffffff1673ffffffffffffffffffffffffffffffffffffffff16636352211e8e6040518263ffffffff1660e01b81526004018082815260200191505060206040518083038186803b15801561101957600080fd5b505afa15801561102d573d6000803e3d6000fd5b505050506040513d602081101561104357600080fd5b810190808051906020019092919050505090508173ffffffffffffffffffffffffffffffffffffffff168173ffffffffffffffffffffffffffffffffffffffff161461109a5760009850505050505050505061110f565b60008060060160008f81526020019081526020016000209050600081600201541180156110ca5750428160020154105b156110e1576000995050505050505050505061110f565b6110f96001876001015461121e90919063ffffffff16565b8660010181905550600199505050505050505050505b95945050505050565b600061113283833460006112a6909392919063ffffffff16565b9050600860009054906101000a900473ffffffffffffffffffffffffffffffffffffffff1673ffffffffffffffffffffffffffffffffffffffff166340c10f1933836040518363ffffffff1660e01b8152600401808373ffffffffffffffffffffffffffffffffffffffff1673ffffffffffffffffffffffffffffffffffffffff16815260200182815260200192505050602060405180830381600087803b1580156111dd57600080fd5b505af11580156111f1573d6000803e3d6000fd5b505050506040513d602081101561120757600080fd5b810190808051906020019092919050505050505050565b60008082840190508381101561129c576040517f08c379a000000000000000000000000000000000000000000000000000000000815260040180806020018281038252601b8152602001807f536166654d6174683a206164646974696f6e206f766572666c6f77000000000081525060200191505060405180910390fd5b8091505092915050565b600080841161131d576040517f08c379a00000000000000000000000000000000000000000000000000000000081526004018080602001828103825260128152602001807f496e76616c69642050726f64756374204944000000000000000000000000000081525060200191505060405180910390fd5b60008311611393576040517f08c379a000000000000000000000000000000000000000000000000000000000815260040180806020018281038252600f8152602001807f496e76616c69642053706563204944000000000000000000000000000000000081525060200191505060405180910390fd5b600085600701600086815260200190815260200160002090506000816000015411611426576040517f08c379a00000000000000000000000000000000000000000000000000000000081526004018080602001828103825260148152602001807f556e726567697374657265642050726f6475637400000000000000000000000081525060200191505060405180910390fd5b600081600401600086815260200190815260200160002090508060030160009054906101000a900460ff166114c3576040517f08c379a000000000000000000000000000000000000000000000000000000000815260040180806020018281038252600c8152602001807f556e6b6e6f776e2053706563000000000000000000000000000000000000000081525060200191505060405180910390fd5b60008160000154111561154a5783816000015414611549576040517f08c379a00000000000000000000000000000000000000000000000000000000081526004018080602001828103825260208152602001807f496e73756666696369656e74207061796d656e7420666f72206c6963656e736581525060200191505060405180910390fd5b5b6115626001886002015461121e90919063ffffffff16565b87600201819055506000876002015490506040518060800160405280888152602001878152602001600084600201541161159d5760006115b5565b6115b484600201544261121e90919063ffffffff16565b5b815260200143815250886006016000838152602001908152602001600020600082015181600001556020820151816001015560408201518160020155606082015181600301559050506116166001846002015461121e90919063ffffffff16565b8360020181905550604051806040016040528082815260200160008152508260050160003373ffffffffffffffffffffffffffffffffffffffff1673ffffffffffffffffffffffffffffffffffffffff1681526020019081526020016000206000820151816000015560208201518160010155905050863373ffffffffffffffffffffffffffffffffffffffff167fc17d9be5d9e09d511942c21bf0eda8cc8034a97283edec1f909c8b051b5e014e8884604051808381526020018281526020019250505060405180910390a380935050505094935050505056fe4c6963656e736520494420646f65736e2774206d617463682072656769737465726564206174747269627574657320666f72206c6963656e73654d7573742072657175657374206c6f676963207065726d697373696f6e2068617368206265666f726520617474656d7074696e6720746f20766572696679206c6963656e7365a165627a7a72305820e2bb744f37641045edab7016a37c88e119fdc75c46faa69e6140a8c289da25d50029",
  "source": "pragma solidity >=0.4.21 <0.6.0;\n\nimport \"../node_modules/@openzeppelin/contracts/math/SafeMath.sol\";\nimport \"./LicenseToken.sol\";\nimport \"./libraries/LicenseStorage.sol\";\nimport \"./libraries/LicenseLogic.sol\";\n\ncontract LicenseManager {\n    using LicenseLogic for LicenseStorage.MainStorage;\n    using SafeMath for uint256;\n\n     //event emitted when a license purchase is made\n    event LicenseIssued(address indexed owner, uint256 indexed productID, uint256 specID, uint256 licenseID);\n\n    //event emitted when registered new license specifications\n    event SpecsRegistered(uint256 indexed productID, uint256 indexed specID, uint256 attributes, string name, uint256 price, uint256 duration);\n\n    LicenseStorage.MainStorage mainStorage;\n    LicenseToken erc721;\n\n    /**\n     * @dev initialize the contract with a deployed ERC721 contract\n    */\n    constructor(LicenseToken _erc721) public {\n        require(!mainStorage.proxied, \"Already initialized\");\n        mainStorage.proxied = true;\n        erc721 = _erc721;\n    }\n\n    /**\n     * @dev issue a new license for the caller for the given product based on the given license specification.\n     * @param _productID is the product id for which a license is being issued\n     * @param _specID is the specification for the license being purchased\n     */\n    function issueLicense(uint256 _productID, uint256 _specID)\n        external payable {\n        uint256 id = mainStorage.addLicense(_productID, _specID, msg.value);\n        erc721.mint(msg.sender, id);\n    }\n\n    /**\n     * @dev find a license ID held by the given address for the given product and license specification IDs.\n     * A non-zero return value indicates the user holds a license for the items, but the license\n     * needs to be verified for expiration, etc.\n     */\n    function findLicenseID(address _holder, uint256 _productID, uint256 _specID)\n        external view returns(uint256) {\n        require(_productID > 0, \"Invalid product IDI\");\n        require(_specID > 0, \"Invalid spec ID\");\n        LicenseStorage.Product storage p = mainStorage.products[_productID];\n        require(p.vendorID > 0, \"Unregistered product\");\n        LicenseStorage.LicenseSpecs storage s = p.specs[_specID];\n        require(s.hasData, \"Invalid spec ID\");\n        LicenseStorage.LicenseMetadata storage m = s.licensees[_holder];\n        return m.licenseID;\n    }\n\n    /**\n     * @dev check whether the given user has a valid license for the given product and specification IDs.\n     * NOTE: This does not authenticate the given address and only verifies that the address\n     * as an unexpired license for the given IDs. To authenticate user access, use the verifyLicense function instead.\n     */\n    function userHasValidLicense(address _holder, uint256 _productID, uint _specID)\n        external view returns(bool) {\n        uint256 lid = this.findLicenseID(_holder, _productID, _specID);\n        require(lid != 0, \"No license found\");\n        if(lid == 0) {\n            return false;\n        }\n        LicenseStorage.License storage lic = mainStorage.licenses[lid];\n        require(lic.productID != 0, \"Invalid license\");\n        if(lic.productID == 0) {\n            return false;\n        }\n        require(lic.expiration > now, \"License expired\");\n        if(lic.expiration > now) {\n            return false;\n        }\n        return true;\n    }\n\n    /**\n     * @dev verify that an address, who signed the given token hash, owns a\n     * license for the given product/spec id combination. This will also verify\n     * that the license has not expired.\n     * @param _holder is the address to verify which must have also signed the given token\n     * @param _licenseID is the license ID to verify\n     * @param v is part of sig\n     * @param r is part of sig\n     * @param s is part of sig\n     */\n    function verifyLicense(address _holder, uint256 _licenseID,\n                           uint8 v, bytes32 r, bytes32 s)\n        external returns(bool) {\n        \n        require(_licenseID > 0, \"Invalid license ID\");\n\n        LicenseStorage.License storage lic = mainStorage.licenses[_licenseID];\n        require(lic.productID > 0, \"Invalid license ID\");\n\n        LicenseStorage.Product storage p = mainStorage.products[lic.productID];\n        require(p.vendorID > 0, \"Unknown Product\");\n\n        LicenseStorage.LicenseSpecs storage spec = p.specs[lic.specID];\n        require(spec.hasData, \"Unknown License Spec\");\n\n        LicenseStorage.LicenseMetadata storage meta = spec.licensees[_holder];\n        require(meta.licenseID > 0, \"Must request logic permission hash before attempting to verify license\");\n\n        bytes32 _token = generatePermissionHash(_holder, _licenseID);\n        bytes memory prefix = \"\\x19Ethereum Signed Message:\\n32\";\n        address test = ecrecover(keccak256(abi.encodePacked(prefix, _token)), v, r, s);\n        require(test == _holder, \"Invalid signature\");\n        address actual = erc721.ownerOf(_licenseID);\n        if (actual != test) {\n            return false;\n        }\n        LicenseStorage.License storage l = mainStorage.licenses[_licenseID];\n        if(l.expiration > 0 && l.expiration < now) {\n            return false;\n        }\n        meta.verificationNonce = meta.verificationNonce.add(1); //for next verification\n\n        return true;\n    }\n\n    /**\n     * @dev generatePermissionHash generates a unique hash that must be signed by the given\n     * user to verify license ownership.\n     * @param user is the user that will sign the returned hash\n     * @param _licenseID is the license id that will be verified\n    */\n    function generatePermissionHash(address user, uint256 _licenseID)\n        public view returns(bytes32) {\n        require(_licenseID > 0, \"Invalid License ID\");\n        LicenseStorage.License storage lic = mainStorage.licenses[_licenseID];\n        require(lic.productID > 0, \"Unknown license\");\n\n        LicenseStorage.Product storage p = mainStorage.products[lic.productID];\n        require(p.vendorID > 0, \"Unregistered Product\");\n        LicenseStorage.LicenseSpecs storage specs = p.specs[lic.specID];\n        require(specs.hasData, \"Unknown license spec\");\n        LicenseStorage.LicenseMetadata storage m = specs.licensees[user];\n        require(m.licenseID == _licenseID, \"License ID doesn't match registered attributes for license\");\n        uint256 nonce = m.verificationNonce;\n        return keccak256(abi.encodePacked(user, _licenseID, nonce));\n    }\n}",
  "sourcePath": "/Users/mdcoon/git/app_license_demo/packages/ald-contracts/contracts/LicenseManager.sol",
  "compiler": {
    "name": "solc",
    "version": "0.5.8+commit.23d335f2.Emscripten.clang"
  },
  "schemaVersion": "3.0.11",
  "updatedAt": "2019-08-12T12:30:42.788Z",
  "devdoc": {
    "methods": {
      "constructor": {
        "details": "initialize the contract with a deployed ERC721 contract"
      },
      "findLicenseID(address,uint256,uint256)": {
        "details": "find a license ID held by the given address for the given product and license specification IDs. A non-zero return value indicates the user holds a license for the items, but the license needs to be verified for expiration, etc."
      },
      "generatePermissionHash(address,uint256)": {
        "details": "generatePermissionHash generates a unique hash that must be signed by the given user to verify license ownership.",
        "params": {
          "_licenseID": "is the license id that will be verified",
          "user": "is the user that will sign the returned hash"
        }
      },
      "issueLicense(uint256,uint256)": {
        "details": "issue a new license for the caller for the given product based on the given license specification.",
        "params": {
          "_productID": "is the product id for which a license is being issued",
          "_specID": "is the specification for the license being purchased"
        }
      },
      "userHasValidLicense(address,uint256,uint256)": {
        "details": "check whether the given user has a valid license for the given product and specification IDs. NOTE: This does not authenticate the given address and only verifies that the address as an unexpired license for the given IDs. To authenticate user access, use the verifyLicense function instead."
      },
      "verifyLicense(address,uint256,uint8,bytes32,bytes32)": {
        "details": "verify that an address, who signed the given token hash, owns a license for the given product/spec id combination. This will also verify that the license has not expired.",
        "params": {
          "_holder": "is the address to verify which must have also signed the given token",
          "_licenseID": "is the license ID to verify",
          "r": "is part of sig",
          "s": "is part of sig",
          "v": "is part of sig"
        }
      }
    }
  },
  "userdoc": {
    "methods": {}
  }
}