{
  "contractName": "LicenseMain",
  "abi": [
    {
      "constant": true,
      "inputs": [
        {
          "name": "user",
          "type": "address"
        },
        {
          "name": "_licenseID",
          "type": "uint256"
        }
      ],
      "name": "generatePermissionHash",
      "outputs": [
        {
          "name": "",
          "type": "bytes32"
        }
      ],
      "payable": false,
      "stateMutability": "view",
      "type": "function"
    },
    {
      "constant": true,
      "inputs": [
        {
          "name": "_holder",
          "type": "address"
        },
        {
          "name": "_productID",
          "type": "uint256"
        },
        {
          "name": "_specID",
          "type": "uint256"
        }
      ],
      "name": "userHasValidLicense",
      "outputs": [
        {
          "name": "",
          "type": "bool"
        }
      ],
      "payable": false,
      "stateMutability": "view",
      "type": "function"
    },
    {
      "constant": true,
      "inputs": [
        {
          "name": "_holder",
          "type": "address"
        },
        {
          "name": "_productID",
          "type": "uint256"
        },
        {
          "name": "_specID",
          "type": "uint256"
        }
      ],
      "name": "findLicenseID",
      "outputs": [
        {
          "name": "",
          "type": "uint256"
        }
      ],
      "payable": false,
      "stateMutability": "view",
      "type": "function"
    },
    {
      "constant": false,
      "inputs": [
        {
          "name": "_holder",
          "type": "address"
        },
        {
          "name": "_licenseID",
          "type": "uint256"
        },
        {
          "name": "v",
          "type": "uint8"
        },
        {
          "name": "r",
          "type": "bytes32"
        },
        {
          "name": "s",
          "type": "bytes32"
        }
      ],
      "name": "verifyLicense",
      "outputs": [
        {
          "name": "",
          "type": "bool"
        }
      ],
      "payable": false,
      "stateMutability": "nonpayable",
      "type": "function"
    },
    {
      "constant": false,
      "inputs": [],
      "name": "renounceOwnership",
      "outputs": [],
      "payable": false,
      "stateMutability": "nonpayable",
      "type": "function"
    },
    {
      "constant": true,
      "inputs": [],
      "name": "owner",
      "outputs": [
        {
          "name": "",
          "type": "address"
        }
      ],
      "payable": false,
      "stateMutability": "view",
      "type": "function"
    },
    {
      "constant": true,
      "inputs": [],
      "name": "isOwner",
      "outputs": [
        {
          "name": "",
          "type": "bool"
        }
      ],
      "payable": false,
      "stateMutability": "view",
      "type": "function"
    },
    {
      "constant": false,
      "inputs": [
        {
          "name": "_productID",
          "type": "uint256"
        },
        {
          "name": "_specID",
          "type": "uint256"
        }
      ],
      "name": "issueLicense",
      "outputs": [],
      "payable": true,
      "stateMutability": "payable",
      "type": "function"
    },
    {
      "constant": false,
      "inputs": [
        {
          "name": "newOwner",
          "type": "address"
        }
      ],
      "name": "transferOwnership",
      "outputs": [],
      "payable": false,
      "stateMutability": "nonpayable",
      "type": "function"
    },
    {
      "inputs": [
        {
          "name": "_erc721",
          "type": "address"
        }
      ],
      "payable": false,
      "stateMutability": "nonpayable",
      "type": "constructor"
    },
    {
      "anonymous": false,
      "inputs": [
        {
          "indexed": true,
          "name": "vendorID",
          "type": "uint256"
        },
        {
          "indexed": false,
          "name": "name",
          "type": "string"
        }
      ],
      "name": "VendorRegistered",
      "type": "event"
    },
    {
      "anonymous": false,
      "inputs": [
        {
          "indexed": false,
          "name": "productID",
          "type": "uint256"
        },
        {
          "indexed": false,
          "name": "name",
          "type": "string"
        }
      ],
      "name": "ProductRegistered",
      "type": "event"
    },
    {
      "anonymous": false,
      "inputs": [
        {
          "indexed": true,
          "name": "productID",
          "type": "uint256"
        },
        {
          "indexed": true,
          "name": "specID",
          "type": "uint256"
        },
        {
          "indexed": false,
          "name": "attributes",
          "type": "uint256"
        },
        {
          "indexed": false,
          "name": "name",
          "type": "string"
        },
        {
          "indexed": false,
          "name": "price",
          "type": "uint256"
        },
        {
          "indexed": false,
          "name": "duration",
          "type": "uint256"
        }
      ],
      "name": "SpecsRegistered",
      "type": "event"
    },
    {
      "anonymous": false,
      "inputs": [
        {
          "indexed": true,
          "name": "owner",
          "type": "address"
        },
        {
          "indexed": true,
          "name": "productID",
          "type": "uint256"
        },
        {
          "indexed": false,
          "name": "specID",
          "type": "uint256"
        },
        {
          "indexed": false,
          "name": "licenseID",
          "type": "uint256"
        },
        {
          "indexed": false,
          "name": "expiration",
          "type": "uint256"
        }
      ],
      "name": "LicenseIssued",
      "type": "event"
    },
    {
      "anonymous": false,
      "inputs": [
        {
          "indexed": true,
          "name": "vendor",
          "type": "address"
        },
        {
          "indexed": false,
          "name": "amount",
          "type": "uint256"
        }
      ],
      "name": "VendorWithdraw",
      "type": "event"
    },
    {
      "anonymous": false,
      "inputs": [
        {
          "indexed": true,
          "name": "previousOwner",
          "type": "address"
        },
        {
          "indexed": true,
          "name": "newOwner",
          "type": "address"
        }
      ],
      "name": "OwnershipTransferred",
      "type": "event"
    },
    {
      "constant": false,
      "inputs": [
        {
          "name": "_name",
          "type": "string"
        }
      ],
      "name": "registerVendor",
      "outputs": [],
      "payable": false,
      "stateMutability": "nonpayable",
      "type": "function"
    },
    {
      "constant": false,
      "inputs": [
        {
          "name": "_name",
          "type": "string"
        }
      ],
      "name": "registerProduct",
      "outputs": [],
      "payable": false,
      "stateMutability": "nonpayable",
      "type": "function"
    },
    {
      "constant": false,
      "inputs": [
        {
          "name": "_productID",
          "type": "uint256"
        },
        {
          "name": "_attributes",
          "type": "uint256"
        },
        {
          "name": "_name",
          "type": "string"
        },
        {
          "name": "_price",
          "type": "uint256"
        },
        {
          "name": "_duration",
          "type": "uint256"
        }
      ],
      "name": "registerLicenseSpecs",
      "outputs": [],
      "payable": false,
      "stateMutability": "nonpayable",
      "type": "function"
    },
    {
      "constant": true,
      "inputs": [
        {
          "name": "_vendor",
          "type": "address"
        }
      ],
      "name": "vendorInfo",
      "outputs": [
        {
          "name": "",
          "type": "uint256"
        },
        {
          "name": "",
          "type": "uint256"
        },
        {
          "name": "",
          "type": "string"
        }
      ],
      "payable": false,
      "stateMutability": "view",
      "type": "function"
    },
    {
      "constant": false,
      "inputs": [],
      "name": "withdrawVendorBalance",
      "outputs": [],
      "payable": false,
      "stateMutability": "nonpayable",
      "type": "function"
    },
    {
      "constant": true,
      "inputs": [
        {
          "name": "_v",
          "type": "address"
        }
      ],
      "name": "isRegisteredVendor",
      "outputs": [
        {
          "name": "",
          "type": "bool"
        }
      ],
      "payable": false,
      "stateMutability": "view",
      "type": "function"
    },
    {
      "constant": true,
      "inputs": [
        {
          "name": "_vendorId",
          "type": "uint256"
        },
        {
          "name": "_index",
          "type": "uint256"
        }
      ],
      "name": "vendorProductInfo",
      "outputs": [
        {
          "name": "",
          "type": "uint256"
        },
        {
          "name": "",
          "type": "uint256"
        },
        {
          "name": "",
          "type": "uint256"
        },
        {
          "name": "",
          "type": "uint256"
        },
        {
          "name": "",
          "type": "string"
        }
      ],
      "payable": false,
      "stateMutability": "view",
      "type": "function"
    },
    {
      "constant": true,
      "inputs": [
        {
          "name": "_prodID",
          "type": "uint256"
        }
      ],
      "name": "productInfo",
      "outputs": [
        {
          "name": "",
          "type": "uint256"
        },
        {
          "name": "",
          "type": "uint256"
        },
        {
          "name": "",
          "type": "uint256"
        },
        {
          "name": "",
          "type": "uint256"
        },
        {
          "name": "",
          "type": "string"
        }
      ],
      "payable": false,
      "stateMutability": "view",
      "type": "function"
    },
    {
      "constant": true,
      "inputs": [
        {
          "name": "_productID",
          "type": "uint256"
        },
        {
          "name": "_specID",
          "type": "uint256"
        }
      ],
      "name": "licenseSpecsInfo",
      "outputs": [
        {
          "name": "",
          "type": "uint256"
        },
        {
          "name": "",
          "type": "uint256"
        },
        {
          "name": "",
          "type": "uint256"
        },
        {
          "name": "",
          "type": "string"
        }
      ],
      "payable": false,
      "stateMutability": "view",
      "type": "function"
    },
    {
      "constant": true,
      "inputs": [
        {
          "name": "_licenseID",
          "type": "uint256"
        }
      ],
      "name": "licenseInfo",
      "outputs": [
        {
          "name": "",
          "type": "uint256"
        },
        {
          "name": "",
          "type": "uint256"
        },
        {
          "name": "",
          "type": "uint256"
        },
        {
          "name": "",
          "type": "uint256"
        }
      ],
      "payable": false,
      "stateMutability": "view",
      "type": "function"
    }
  ],
  "bytecode": "0x60806040523480156200001157600080fd5b506040516020806200436a833981018060405260208110156200003357600080fd5b810190808051906020019092919050505080336000806101000a81548173ffffffffffffffffffffffffffffffffffffffff021916908373ffffffffffffffffffffffffffffffffffffffff1602179055506000809054906101000a900473ffffffffffffffffffffffffffffffffffffffff1673ffffffffffffffffffffffffffffffffffffffff16600073ffffffffffffffffffffffffffffffffffffffff167f8be0079c531659141344cd1fd0a4f28419497f9722a3daafe3b4186f6b6457e060405160405180910390a3600160030160009054906101000a900460ff161562000188576040517f08c379a00000000000000000000000000000000000000000000000000000000081526004018080602001828103825260138152602001807f416c726561647920696e697469616c697a65640000000000000000000000000081525060200191505060405180910390fd5b60018060030160006101000a81548160ff02191690831515021790555080600960006101000a81548173ffffffffffffffffffffffffffffffffffffffff021916908373ffffffffffffffffffffffffffffffffffffffff160217905550506200022d6040518060400160405280600a81526020017f526f6f7456656e646f72000000000000000000000000000000000000000000008152506200027a60201b60201c565b620002736040518060400160405280600b81526020017f526f6f7450726f647563740000000000000000000000000000000000000000008152506200029860201b60201c565b506200095a565b62000295816001620002b660201b62002d351790919060201c565b50565b620002b38160016200050460201b620024931790919060201c565b50565b620002c882336200075a60201b60201c565b156200033c576040517f08c379a00000000000000000000000000000000000000000000000000000000081526004018080602001828103825260158152602001807f56656e646f7220616c726561647920657869737473000000000000000000000081525060200191505060405180910390fd5b6200035b60018360000154620007a860201b6200240b1790919060201c565b82600001819055506000826000015490506040518060600160405280600081526020016000604051908082528060200260200182016040528015620003af5781602001602082028038833980820191505090505b50815260200183815250836004016000838152602001908152602001600020600082015181600001556020820151816001019080519060200190620003f692919062000831565b5060408201518160020190805190602001906200041592919062000883565b50905050808360050160003373ffffffffffffffffffffffffffffffffffffffff1673ffffffffffffffffffffffffffffffffffffffff16815260200190815260200160002081905550807f2b3e75d4417af2715688fe83d387844a936fd4aaeb250a3ad15dbefa95ce4f24836040518080602001828103825283818151815260200191508051906020019080838360005b83811015620004c4578082015181840152602081019050620004a7565b50505050905090810190601f168015620004f25780820380516001836020036101000a031916815260200191505b509250505060405180910390a2505050565b60008260050160003373ffffffffffffffffffffffffffffffffffffffff1673ffffffffffffffffffffffffffffffffffffffff16815260200190815260200160002054905060008111620005c1576040517f08c379a00000000000000000000000000000000000000000000000000000000081526004018080602001828103825260178152602001807f4e6f74206120726567697374657265642076656e646f7200000000000000000081525060200191505060405180910390fd5b60008360040160008381526020019081526020016000209050620005f960018560010154620007a860201b6200240b1790919060201c565b8460010181905550600084600101549050620006146200090a565b838160000181815250508481606001819052508086600701600084815260200190815260200160002060008201518160000155602082015181600101556040820151816002015560608201518160030190805190602001906200067992919062000883565b50905050826001018290806001815401808255809150509060018203906000526020600020016000909192909190915055507ffe5345b00afbb8e30dd35f9905f6d7917ea45ca811cbcdb0de19673accc660fb82866040518083815260200180602001828103825283818151815260200191508051906020019080838360005b8381101562000716578082015181840152602081019050620006f9565b50505050905090810190601f168015620007445780820380516001836020036101000a031916815260200191505b50935050505060405180910390a1505050505050565b6000808360050160008473ffffffffffffffffffffffffffffffffffffffff1673ffffffffffffffffffffffffffffffffffffffff1681526020019081526020016000205411905092915050565b60008082840190508381101562000827576040517f08c379a000000000000000000000000000000000000000000000000000000000815260040180806020018281038252601b8152602001807f536166654d6174683a206164646974696f6e206f766572666c6f77000000000081525060200191505060405180910390fd5b8091505092915050565b82805482825590600052602060002090810192821562000870579160200282015b828111156200086f57825182559160200191906001019062000852565b5b5090506200087f919062000932565b5090565b828054600181600116156101000203166002900490600052602060002090601f016020900481019282601f10620008c657805160ff1916838001178555620008f7565b82800160010185558215620008f7579182015b82811115620008f6578251825591602001919060010190620008d9565b5b50905062000906919062000932565b5090565b6040518060800160405280600081526020016000815260200160008152602001606081525090565b6200095791905b808211156200095357600081600090555060010162000939565b5090565b90565b613a00806200096a6000396000f3fe6080604052600436106101145760003560e01c8063715018a6116100a0578063d46227bb11610064578063d46227bb146107ee578063e538109a146108c8578063e9754f9e14610990578063ea0f543b14610a68578063f2fde38b14610aa057610114565b8063715018a614610618578063887d5e3d1461062f5780638da5cb5b146106985780638f32d59b146106ef578063bb119f6e1461071e57610114565b80633bba1451116100e75780633bba1451146102f35780633e34cf0a1461037057806340791f3a146103e9578063660930e81461047d5780636cbe760d1461054557610114565b8063056df274146101195780631470e7ff146102095780631e0845581461022057806332342b7f14610284575b600080fd5b34801561012557600080fd5b50610207600480360360a081101561013c57600080fd5b8101908080359060200190929190803590602001909291908035906020019064010000000081111561016d57600080fd5b82018360208201111561017f57600080fd5b803590602001918460018302840111640100000000831117156101a157600080fd5b91908080601f016020809104026020016040519081016040528093929190818152602001838380828437600081840152601f19601f8201169050808301925050505050505091929192908035906020019092919080359060200190929190505050610af1565b005b34801561021557600080fd5b5061021e610b14565b005b34801561022c57600080fd5b506102596004803603602081101561024357600080fd5b8101908080359060200190929190505050610b20565b6040518085815260200184815260200183815260200182815260200194505050505060405180910390f35b34801561029057600080fd5b506102dd600480360360408110156102a757600080fd5b81019080803573ffffffffffffffffffffffffffffffffffffffff16906020019092919080359060200190929190505050610b49565b6040518082815260200191505060405180910390f35b3480156102ff57600080fd5b506103566004803603606081101561031657600080fd5b81019080803573ffffffffffffffffffffffffffffffffffffffff1690602001909291908035906020019092919080359060200190929190505050610eaa565b604051808215151515815260200191505060405180910390f35b34801561037c57600080fd5b506103d36004803603606081101561039357600080fd5b81019080803573ffffffffffffffffffffffffffffffffffffffff1690602001909291908035906020019092919080359060200190929190505050610fe1565b6040518082815260200191505060405180910390f35b3480156103f557600080fd5b50610463600480360360a081101561040c57600080fd5b81019080803573ffffffffffffffffffffffffffffffffffffffff16906020019092919080359060200190929190803560ff1690602001909291908035906020019092919080359060200190929190505050611255565b604051808215151515815260200191505060405180910390f35b34801561048957600080fd5b50610543600480360360208110156104a057600080fd5b81019080803590602001906401000000008111156104bd57600080fd5b8201836020820111156104cf57600080fd5b803590602001918460018302840111640100000000831117156104f157600080fd5b91908080601f016020809104026020016040519081016040528093929190818152602001838380828437600081840152601f19601f82011690508083019250505050505050919291929050505061187d565b005b34801561055157600080fd5b506105886004803603604081101561056857600080fd5b810190808035906020019092919080359060200190929190505050611894565b6040518085815260200184815260200183815260200180602001828103825283818151815260200191508051906020019080838360005b838110156105da5780820151818401526020810190506105bf565b50505050905090810190601f1680156106075780820380516001836020036101000a031916815260200191505b509550505050505060405180910390f35b34801561062457600080fd5b5061062d6118c2565b005b34801561063b57600080fd5b5061067e6004803603602081101561065257600080fd5b81019080803573ffffffffffffffffffffffffffffffffffffffff1690602001909291905050506119fb565b604051808215151515815260200191505060405180910390f35b3480156106a457600080fd5b506106ad611a18565b604051808273ffffffffffffffffffffffffffffffffffffffff1673ffffffffffffffffffffffffffffffffffffffff16815260200191505060405180910390f35b3480156106fb57600080fd5b50610704611a41565b604051808215151515815260200191505060405180910390f35b34801561072a57600080fd5b506107576004803603602081101561074157600080fd5b8101908080359060200190929190505050611a98565b6040518086815260200185815260200184815260200183815260200180602001828103825283818151815260200191508051906020019080838360005b838110156107af578082015181840152602081019050610794565b50505050905090810190601f1680156107dc5780820380516001836020036101000a031916815260200191505b50965050505050505060405180910390f35b3480156107fa57600080fd5b506108316004803603604081101561081157600080fd5b810190808035906020019092919080359060200190929190505050611ac7565b6040518086815260200185815260200184815260200183815260200180602001828103825283818151815260200191508051906020019080838360005b8381101561088957808201518184015260208101905061086e565b50505050905090810190601f1680156108b65780820380516001836020036101000a031916815260200191505b50965050505050505060405180910390f35b3480156108d457600080fd5b5061098e600480360360208110156108eb57600080fd5b810190808035906020019064010000000081111561090857600080fd5b82018360208201111561091a57600080fd5b8035906020019184600183028401116401000000008311171561093c57600080fd5b91908080601f016020809104026020016040519081016040528093929190818152602001838380828437600081840152601f19601f820116905080830192505050505050509192919290505050611af9565b005b34801561099c57600080fd5b506109df600480360360208110156109b357600080fd5b81019080803573ffffffffffffffffffffffffffffffffffffffff169060200190929190505050611b10565b6040518084815260200183815260200180602001828103825283818151815260200191508051906020019080838360005b83811015610a2b578082015181840152602081019050610a10565b50505050905090810190601f168015610a585780820380516001836020036101000a031916815260200191505b5094505050505060405180910390f35b610a9e60048036036040811015610a7e57600080fd5b810190808035906020019092919080359060200190929190505050611b36565b005b348015610aac57600080fd5b50610aef60048036036020811015610ac357600080fd5b81019080803573ffffffffffffffffffffffffffffffffffffffff169060200190929190505050611c3c565b005b610b0d85858585856001611cc29095949392919063ffffffff16565b5050505050565b610b1e6001612013565b565b600080600080610b3a85600161221690919063ffffffff16565b93509350935093509193509193565b6000808211610bc0576040517f08c379a00000000000000000000000000000000000000000000000000000000081526004018080602001828103825260128152602001807f496e76616c6964204c6963656e7365204944000000000000000000000000000081525060200191505060405180910390fd5b60006001600601600084815260200190815260200160002090506000816000015411610c54576040517f08c379a000000000000000000000000000000000000000000000000000000000815260040180806020018281038252600f8152602001807f556e6b6e6f776e206c6963656e7365000000000000000000000000000000000081525060200191505060405180910390fd5b6000600160070160008360000154815260200190815260200160002090506000816000015411610cec576040517f08c379a00000000000000000000000000000000000000000000000000000000081526004018080602001828103825260148152602001807f556e726567697374657265642050726f6475637400000000000000000000000081525060200191505060405180910390fd5b60008160040160008460010154815260200190815260200160002090508060030160009054906101000a900460ff16610d8d576040517f08c379a00000000000000000000000000000000000000000000000000000000081526004018080602001828103825260148152602001807f556e6b6e6f776e206c6963656e7365207370656300000000000000000000000081525060200191505060405180910390fd5b60008160050160008873ffffffffffffffffffffffffffffffffffffffff1673ffffffffffffffffffffffffffffffffffffffff168152602001908152602001600020905085816000015414610e2e576040517f08c379a000000000000000000000000000000000000000000000000000000000815260040180806020018281038252603a815260200180613955603a913960400191505060405180910390fd5b600081600101549050878782604051602001808473ffffffffffffffffffffffffffffffffffffffff1673ffffffffffffffffffffffffffffffffffffffff1660601b81526014018381526020018281526020019350505050604051602081830303815290604052805190602001209550505050505092915050565b6000803073ffffffffffffffffffffffffffffffffffffffff16633e34cf0a8686866040518463ffffffff1660e01b8152600401808473ffffffffffffffffffffffffffffffffffffffff1673ffffffffffffffffffffffffffffffffffffffff168152602001838152602001828152602001935050505060206040518083038186803b158015610f3a57600080fd5b505afa158015610f4e573d6000803e3d6000fd5b505050506040513d6020811015610f6457600080fd5b810190808051906020019092919050505090506000811415610f8a576000915050610fda565b6000600160060160008381526020019081526020016000209050600081600001541415610fbc57600092505050610fda565b4281600201541015610fd357600092505050610fda565b6001925050505b9392505050565b6000808311611058576040517f08c379a00000000000000000000000000000000000000000000000000000000081526004018080602001828103825260138152602001807f496e76616c69642070726f64756374204944490000000000000000000000000081525060200191505060405180910390fd5b600082116110ce576040517f08c379a000000000000000000000000000000000000000000000000000000000815260040180806020018281038252600f8152602001807f496e76616c69642073706563204944000000000000000000000000000000000081525060200191505060405180910390fd5b60006001600701600085815260200190815260200160002090506000816000015411611162576040517f08c379a00000000000000000000000000000000000000000000000000000000081526004018080602001828103825260148152602001807f556e726567697374657265642070726f6475637400000000000000000000000081525060200191505060405180910390fd5b600081600401600085815260200190815260200160002090508060030160009054906101000a900460ff166111ff576040517f08c379a000000000000000000000000000000000000000000000000000000000815260040180806020018281038252600f8152602001807f496e76616c69642073706563204944000000000000000000000000000000000081525060200191505060405180910390fd5b60008160050160008873ffffffffffffffffffffffffffffffffffffffff1673ffffffffffffffffffffffffffffffffffffffff1681526020019081526020016000209050806000015493505050509392505050565b60008085116112cc576040517f08c379a00000000000000000000000000000000000000000000000000000000081526004018080602001828103825260128152602001807f496e76616c6964206c6963656e7365204944000000000000000000000000000081525060200191505060405180910390fd5b60006001600601600087815260200190815260200160002090506000816000015411611360576040517f08c379a00000000000000000000000000000000000000000000000000000000081526004018080602001828103825260128152602001807f496e76616c6964206c6963656e7365204944000000000000000000000000000081525060200191505060405180910390fd5b60006001600701600083600001548152602001908152602001600020905060008160000154116113f8576040517f08c379a000000000000000000000000000000000000000000000000000000000815260040180806020018281038252600f8152602001807f556e6b6e6f776e2050726f64756374000000000000000000000000000000000081525060200191505060405180910390fd5b60008160040160008460010154815260200190815260200160002090508060030160009054906101000a900460ff16611499576040517f08c379a00000000000000000000000000000000000000000000000000000000081526004018080602001828103825260148152602001807f556e6b6e6f776e204c6963656e7365205370656300000000000000000000000081525060200191505060405180910390fd5b60008160050160008b73ffffffffffffffffffffffffffffffffffffffff1673ffffffffffffffffffffffffffffffffffffffff1681526020019081526020016000209050600081600001541161153b576040517f08c379a000000000000000000000000000000000000000000000000000000000815260040180806020018281038252604681526020018061398f6046913960600191505060405180910390fd5b60006115478b8b610b49565b905060606040518060400160405280601c81526020017f19457468657265756d205369676e6564204d6573736167653a0a33320000000081525090506000600182846040516020018083805190602001908083835b602083106115bf578051825260208201915060208101905060208303925061159c565b6001836020036101000a03801982511681845116808217855250505050505090500182815260200192505050604051602081830303815290604052805190602001208c8c8c60405160008152602001604052604051808581526020018460ff1660ff1681526020018381526020018281526020019450505050506020604051602081039080840390855afa15801561165b573d6000803e3d6000fd5b5050506020604051035190508c73ffffffffffffffffffffffffffffffffffffffff168173ffffffffffffffffffffffffffffffffffffffff1614611708576040517f08c379a00000000000000000000000000000000000000000000000000000000081526004018080602001828103825260118152602001807f496e76616c6964207369676e617475726500000000000000000000000000000081525060200191505060405180910390fd5b6000600960009054906101000a900473ffffffffffffffffffffffffffffffffffffffff1673ffffffffffffffffffffffffffffffffffffffff16636352211e8e6040518263ffffffff1660e01b81526004018082815260200191505060206040518083038186803b15801561177d57600080fd5b505afa158015611791573d6000803e3d6000fd5b505050506040513d60208110156117a757600080fd5b810190808051906020019092919050505090508173ffffffffffffffffffffffffffffffffffffffff168173ffffffffffffffffffffffffffffffffffffffff16146117fe57600098505050505050505050611874565b6000600160060160008f815260200190815260200160002090506000816002015411801561182f5750428160020154105b156118465760009950505050505050505050611874565b61185e6001876001015461240b90919063ffffffff16565b8660010181905550600199505050505050505050505b95945050505050565b61189181600161249390919063ffffffff16565b50565b600080600060606118b1868660016126da9092919063ffffffff16565b935093509350935092959194509250565b6118ca611a41565b61193c576040517f08c379a00000000000000000000000000000000000000000000000000000000081526004018080602001828103825260208152602001807f4f776e61626c653a2063616c6c6572206973206e6f7420746865206f776e657281525060200191505060405180910390fd5b600073ffffffffffffffffffffffffffffffffffffffff166000809054906101000a900473ffffffffffffffffffffffffffffffffffffffff1673ffffffffffffffffffffffffffffffffffffffff167f8be0079c531659141344cd1fd0a4f28419497f9722a3daafe3b4186f6b6457e060405160405180910390a360008060006101000a81548173ffffffffffffffffffffffffffffffffffffffff021916908373ffffffffffffffffffffffffffffffffffffffff160217905550565b6000611a118260016129bf90919063ffffffff16565b9050919050565b60008060009054906101000a900473ffffffffffffffffffffffffffffffffffffffff16905090565b60008060009054906101000a900473ffffffffffffffffffffffffffffffffffffffff1673ffffffffffffffffffffffffffffffffffffffff163373ffffffffffffffffffffffffffffffffffffffff1614905090565b6000806000806060611ab4866001612a0d90919063ffffffff16565b9450945094509450945091939590929450565b6000806000806060611ae587876001612be39092919063ffffffff16565b945094509450945094509295509295909350565b611b0d816001612d3590919063ffffffff16565b50565b6000806060611b29846001612f6b90919063ffffffff16565b9250925092509193909250565b6000611b5083833460016130fd909392919063ffffffff16565b9050600960009054906101000a900473ffffffffffffffffffffffffffffffffffffffff1673ffffffffffffffffffffffffffffffffffffffff166340c10f1933836040518363ffffffff1660e01b8152600401808373ffffffffffffffffffffffffffffffffffffffff1673ffffffffffffffffffffffffffffffffffffffff16815260200182815260200192505050602060405180830381600087803b158015611bfb57600080fd5b505af1158015611c0f573d6000803e3d6000fd5b505050506040513d6020811015611c2557600080fd5b810190808051906020019092919050505050505050565b611c44611a41565b611cb6576040517f08c379a00000000000000000000000000000000000000000000000000000000081526004018080602001828103825260208152602001807f4f776e61626c653a2063616c6c6572206973206e6f7420746865206f776e657281525060200191505060405180910390fd5b611cbf81613682565b50565b60008511611d38576040517f08c379a00000000000000000000000000000000000000000000000000000000081526004018080602001828103825260128152602001807f496e76616c69642050726f64756374204944000000000000000000000000000081525060200191505060405180910390fd5b611d4286336137c6565b611db4576040517f08c379a00000000000000000000000000000000000000000000000000000000081526004018080602001828103825260178152602001807f4e6f74206120726567697374657265642076656e646f7200000000000000000081525060200191505060405180910390fd5b60008660050160003373ffffffffffffffffffffffffffffffffffffffff1673ffffffffffffffffffffffffffffffffffffffff1681526020019081526020016000205490506000876007016000888152602001908152602001600020905080600001548214611e8c576040517f08c379a00000000000000000000000000000000000000000000000000000000081526004018080602001828103825260118152602001807f4e6f742070726f64756374206f776e657200000000000000000000000000000081525060200191505060405180910390fd5b611ea46001826001015461240b90919063ffffffff16565b81600101819055506000816001015490506040518060a001604052808681526020018881526020018581526020016001151581526020018781525082600401600083815260200190815260200160002060008201518160000155602082015181600101556040820151816002015560608201518160030160006101000a81548160ff0219169083151502179055506080820151816004019080519060200190611f4e929190613814565b5090505080887f2e11fd987fb0d47c66d2c22d51781a9a0d68b11ab597275fe27b485af1c3ea86898989896040518085815260200180602001848152602001838152602001828103825285818151815260200191508051906020019080838360005b83811015611fcb578082015181840152602081019050611fb0565b50505050905090810190601f168015611ff85780820380516001836020036101000a031916815260200191505b509550505050505060405180910390a3505050505050505050565b61201d81336137c6565b61208f576040517f08c379a00000000000000000000000000000000000000000000000000000000081526004018080602001828103825260178152602001807f4e6f74206120726567697374657265642076656e646f7200000000000000000081525060200191505060405180910390fd5b60008160050160003373ffffffffffffffffffffffffffffffffffffffff1673ffffffffffffffffffffffffffffffffffffffff168152602001908152602001600020549050600082600401600083815260200190815260200160002090506000816000015411612168576040517f08c379a00000000000000000000000000000000000000000000000000000000081526004018080602001828103825260138152602001807f4e6f7468696e6720746f2077697468647261770000000000000000000000000081525060200191505060405180910390fd5b600081600001549050600082600001819055503373ffffffffffffffffffffffffffffffffffffffff166108fc829081150290604051600060405180830381858888f193505050501580156121c1573d6000803e3d6000fd5b503373ffffffffffffffffffffffffffffffffffffffff167f588163780f9aa4a385ad359ecd2e95426a08dd967dcd89c1c1d7c12bb56dbb17826040518082815260200191505060405180910390a250505050565b60008060008060008511612292576040517f08c379a00000000000000000000000000000000000000000000000000000000081526004018080602001828103825260128152602001807f496e76616c6964204c6963656e7365204944000000000000000000000000000081525060200191505060405180910390fd5b600086600601600087815260200190815260200160002090506000816001015411612325576040517f08c379a00000000000000000000000000000000000000000000000000000000081526004018080602001828103825260128152602001807f496e76616c6964206c6963656e7365204944000000000000000000000000000081525060200191505060405180910390fd5b600087600701600083600001548152602001908152602001600020905060008160040160008460010154815260200190815260200160002090508060030160009054906101000a900460ff166123e3576040517f08c379a00000000000000000000000000000000000000000000000000000000081526004018080602001828103825260128152602001807f496e76616c6964204c6973656e7365204944000000000000000000000000000081525060200191505060405180910390fd5b8260000154816001015484600201548560030154965096509650965050505092959194509250565b600080828401905083811015612489576040517f08c379a000000000000000000000000000000000000000000000000000000000815260040180806020018281038252601b8152602001807f536166654d6174683a206164646974696f6e206f766572666c6f77000000000081525060200191505060405180910390fd5b8091505092915050565b60008260050160003373ffffffffffffffffffffffffffffffffffffffff1673ffffffffffffffffffffffffffffffffffffffff1681526020019081526020016000205490506000811161254f576040517f08c379a00000000000000000000000000000000000000000000000000000000081526004018080602001828103825260178152602001807f4e6f74206120726567697374657265642076656e646f7200000000000000000081525060200191505060405180910390fd5b600083600401600083815260200190815260200160002090506125806001856001015461240b90919063ffffffff16565b8460010181905550600084600101549050612599613894565b838160000181815250508481606001819052508086600701600084815260200190815260200160002060008201518160000155602082015181600101556040820151816002015560608201518160030190805190602001906125fc929190613814565b50905050826001018290806001815401808255809150509060018203906000526020600020016000909192909190915055507ffe5345b00afbb8e30dd35f9905f6d7917ea45ca811cbcdb0de19673accc660fb82866040518083815260200180602001828103825283818151815260200191508051906020019080838360005b8381101561269757808201518184015260208101905061267c565b50505050905090810190601f1680156126c45780820380516001836020036101000a031916815260200191505b50935050505060405180910390a1505050505050565b6000806000606060008611612757576040517f08c379a00000000000000000000000000000000000000000000000000000000081526004018080602001828103825260128152602001807f496e76616c69642050726f64756374204944000000000000000000000000000081525060200191505060405180910390fd5b600085116127cd576040517f08c379a000000000000000000000000000000000000000000000000000000000815260040180806020018281038252600f8152602001807f496e76616c69642053706563204944000000000000000000000000000000000081525060200191505060405180910390fd5b600087600701600088815260200190815260200160002090506000816000015411612860576040517f08c379a00000000000000000000000000000000000000000000000000000000081526004018080602001828103825260148152602001807f556e726567697374657265642070726f6475637400000000000000000000000081525060200191505060405180910390fd5b600081600401600088815260200190815260200160002090508060030160009054906101000a900460ff166128fd576040517f08c379a00000000000000000000000000000000000000000000000000000000081526004018080602001828103825260148152602001807f556e6b6e6f776e206c6963656e7365207370656300000000000000000000000081525060200191505060405180910390fd5b80600001548160010154826002015483600401808054600181600116156101000203166002900480601f0160208091040260200160405190810160405280929190818152602001828054600181600116156101000203166002900480156129a55780601f1061297a576101008083540402835291602001916129a5565b820191906000526020600020905b81548152906001019060200180831161298857829003601f168201915b505050505090509550955095509550505093509350935093565b6000808360050160008473ffffffffffffffffffffffffffffffffffffffff1673ffffffffffffffffffffffffffffffffffffffff1681526020019081526020016000205411905092915050565b600080600080606060008611612a8b576040517f08c379a00000000000000000000000000000000000000000000000000000000081526004018080602001828103825260128152602001807f496e76616c69642050726f64756374204944000000000000000000000000000081525060200191505060405180910390fd5b600087600701600088815260200190815260200160002090506000816000015411612b1e576040517f08c379a00000000000000000000000000000000000000000000000000000000081526004018080602001828103825260148152602001807f556e726567697374657265642050726f6475637400000000000000000000000081525060200191505060405180910390fd5b8060000154878260010154836002015484600301808054600181600116156101000203166002900480601f016020809104026020016040519081016040528092919081815260200182805460018160011615610100020316600290048015612bc75780601f10612b9c57610100808354040283529160200191612bc7565b820191906000526020600020905b815481529060010190602001808311612baa57829003601f168201915b5050505050905095509550955095509550509295509295909350565b600080600080606060008711612c61576040517f08c379a00000000000000000000000000000000000000000000000000000000081526004018080602001828103825260118152602001807f496e76616c69642076656e646f7220494400000000000000000000000000000081525060200191505060405180910390fd5b6000886004016000898152602001908152602001600020905080600101805490508710612cf6576040517f08c379a00000000000000000000000000000000000000000000000000000000081526004018080602001828103825260138152602001807f496e646578206f7574206f6620626f756e64730000000000000000000000000081525060200191505060405180910390fd5b6000816001018881548110612d0757fe5b90600052602060002001549050612d1e8a82612a0d565b965096509650965096505050939792965093509350565b612d3f82336137c6565b15612db2576040517f08c379a00000000000000000000000000000000000000000000000000000000081526004018080602001828103825260158152602001807f56656e646f7220616c726561647920657869737473000000000000000000000081525060200191505060405180910390fd5b612dca6001836000015461240b90919063ffffffff16565b82600001819055506000826000015490506040518060600160405280600081526020016000604051908082528060200260200182016040528015612e1d5781602001602082028038833980820191505090505b50815260200183815250836004016000838152602001908152602001600020600082015181600001556020820151816001019080519060200190612e629291906138bc565b506040820151816002019080519060200190612e7f929190613814565b50905050808360050160003373ffffffffffffffffffffffffffffffffffffffff1673ffffffffffffffffffffffffffffffffffffffff16815260200190815260200160002081905550807f2b3e75d4417af2715688fe83d387844a936fd4aaeb250a3ad15dbefa95ce4f24836040518080602001828103825283818151815260200191508051906020019080838360005b83811015612f2c578082015181840152602081019050612f11565b50505050905090810190601f168015612f595780820380516001836020036101000a031916815260200191505b509250505060405180910390a2505050565b600080606060008560050160008673ffffffffffffffffffffffffffffffffffffffff1673ffffffffffffffffffffffffffffffffffffffff1681526020019081526020016000205490506000811161302c576040517f08c379a00000000000000000000000000000000000000000000000000000000081526004018080602001828103825260168152602001807f56656e646f72204e6f742052656769737465726564200000000000000000000081525060200191505060405180910390fd5b6000866004016000838152602001908152602001600020905081816001018054905082600201808054600181600116156101000203166002900480601f0160208091040260200160405190810160405280929190818152602001828054600181600116156101000203166002900480156130e75780601f106130bc576101008083540402835291602001916130e7565b820191906000526020600020905b8154815290600101906020018083116130ca57829003601f168201915b5050505050905094509450945050509250925092565b6000808411613174576040517f08c379a00000000000000000000000000000000000000000000000000000000081526004018080602001828103825260128152602001807f496e76616c69642050726f64756374204944000000000000000000000000000081525060200191505060405180910390fd5b600083116131ea576040517f08c379a000000000000000000000000000000000000000000000000000000000815260040180806020018281038252600f8152602001807f496e76616c69642053706563204944000000000000000000000000000000000081525060200191505060405180910390fd5b60008560070160008681526020019081526020016000209050600081600001541161327d576040517f08c379a00000000000000000000000000000000000000000000000000000000081526004018080602001828103825260148152602001807f556e726567697374657265642050726f6475637400000000000000000000000081525060200191505060405180910390fd5b60008660040160008360000154815260200190815260200160002090506000816001018054905011613317576040517f08c379a00000000000000000000000000000000000000000000000000000000081526004018080602001828103825260128152602001807f496e76616c69642070726f64756374206964000000000000000000000000000081525060200191505060405180910390fd5b600082600401600087815260200190815260200160002090508060030160009054906101000a900460ff166133b4576040517f08c379a000000000000000000000000000000000000000000000000000000000815260040180806020018281038252600c8152602001807f556e6b6e6f776e2053706563000000000000000000000000000000000000000081525060200191505060405180910390fd5b60008160000154111561343b578481600001541461343a576040517f08c379a00000000000000000000000000000000000000000000000000000000081526004018080602001828103825260208152602001807f496e73756666696369656e74207061796d656e7420666f72206c6963656e736581525060200191505060405180910390fd5b5b6134536001896002015461240b90919063ffffffff16565b886002018190555060008860020154905060008090506000836002015411156135055761348d83600201544261240b90919063ffffffff16565b9050428111613504576040517f08c379a000000000000000000000000000000000000000000000000000000000815260040180806020018281038252601d8152602001807f45787069726174696f6e20636f6d7075746174696f6e206973206f666600000081525060200191505060405180910390fd5b5b60405180608001604052808a8152602001898152602001828152602001438152508a60060160008481526020019081526020016000206000820151816000015560208201518160010155604082015181600201556060820151816003015590505061357e6001866002015461240b90919063ffffffff16565b8560020181905550604051806040016040528083815260200160008152508360050160003373ffffffffffffffffffffffffffffffffffffffff1673ffffffffffffffffffffffffffffffffffffffff168152602001908152602001600020600082015181600001556020820151816001015590505061360b87856000015461240b90919063ffffffff16565b8460000181905550883373ffffffffffffffffffffffffffffffffffffffff167fdb5a2df6230d0dbc6c8fc3842757a65fc95a7344dad7213aef632c4239c9625f8a858560405180848152602001838152602001828152602001935050505060405180910390a38195505050505050949350505050565b600073ffffffffffffffffffffffffffffffffffffffff168173ffffffffffffffffffffffffffffffffffffffff161415613708576040517f08c379a000000000000000000000000000000000000000000000000000000000815260040180806020018281038252602681526020018061392f6026913960400191505060405180910390fd5b8073ffffffffffffffffffffffffffffffffffffffff166000809054906101000a900473ffffffffffffffffffffffffffffffffffffffff1673ffffffffffffffffffffffffffffffffffffffff167f8be0079c531659141344cd1fd0a4f28419497f9722a3daafe3b4186f6b6457e060405160405180910390a3806000806101000a81548173ffffffffffffffffffffffffffffffffffffffff021916908373ffffffffffffffffffffffffffffffffffffffff16021790555050565b6000808360050160008473ffffffffffffffffffffffffffffffffffffffff1673ffffffffffffffffffffffffffffffffffffffff1681526020019081526020016000205411905092915050565b828054600181600116156101000203166002900490600052602060002090601f016020900481019282601f1061385557805160ff1916838001178555613883565b82800160010185558215613883579182015b82811115613882578251825591602001919060010190613867565b5b5090506138909190613909565b5090565b6040518060800160405280600081526020016000815260200160008152602001606081525090565b8280548282559060005260206000209081019282156138f8579160200282015b828111156138f75782518255916020019190600101906138dc565b5b5090506139059190613909565b5090565b61392b91905b8082111561392757600081600090555060010161390f565b5090565b9056fe4f776e61626c653a206e6577206f776e657220697320746865207a65726f20616464726573734c6963656e736520494420646f65736e2774206d617463682072656769737465726564206174747269627574657320666f72206c6963656e73654d7573742072657175657374206c6f676963207065726d697373696f6e2068617368206265666f726520617474656d7074696e6720746f20766572696679206c6963656e7365a165627a7a7230582086ad9610e22f5b7ab20df843ba60d9f251a8391e8b6eb0095f340abde4c59ae20029",
  "source": "pragma solidity >=0.4.21 <0.6.0;\n\nimport \"../node_modules/@openzeppelin/contracts/ownership/Ownable.sol\";\n\nimport \"./LicenseToken.sol\";\nimport \"./libraries/LicenseStorage.sol\";\nimport \"./libraries/LicenseLogic.sol\";\nimport \"./LicenseManager.sol\";\n\ncontract LicenseMain is Ownable, LicenseManager {\n    using LicenseLogic for LicenseStorage.MainStorage;\n\n    /**\n     * @dev init initializes the license management contract with an initial root vendor/product\n     * owned by the contract owner.\n     */\n    constructor(LicenseToken _erc721) LicenseManager(_erc721) public {\n        registerVendor(\"RootVendor\");\n        registerProduct(\"RootProduct\");\n    }\n\n    /**\n    * @dev register a new vendor with the contract. Throws if address already registered as vendor.\n     */\n    function registerVendor(string memory _name) public {\n        mainStorage.addVendor(_name);\n    }\n\n    /**\n     * @dev register a new product. Caller must be a valid vendor address.\n     */\n    function registerProduct(string memory _name) public {\n        mainStorage.addProduct(_name);\n    }\n\n    /**\n     * @dev register new license specs for a product. Caller must be a registered vendor\n     * that owns the given product.\n     */\n    function registerLicenseSpecs(uint256 _productID,\n                                  uint256 _attributes,\n                                  string memory _name,\n                                  uint256 _price,\n                                  uint256 _duration) public {\n        mainStorage.addLicenseSpecs(_productID, _attributes, _name, _price, _duration);\n    }\n\n    /**\n     * @dev get vendor information for a registered vendor with the given address\n     * @param _vendor is the vendor address\n     */\n    function vendorInfo(address _vendor)\n            public view returns(uint256, uint256, string memory) {\n        return mainStorage.vendorInfo(_vendor);\n    }\n    \n    /**\n     * @dev withdraw license fees from vendor's account\n     */\n    function withdrawVendorBalance() public {\n        mainStorage.withdrawVendorBalance();\n    }\n\n    /**\n     * @dev Check whether the given address belongs to a registered vendor\n    */\n    function isRegisteredVendor(address _v) public view returns(bool) {\n        return mainStorage.isRegisteredVendor(_v);\n    }\n\n    /**\n     * @dev get vendor product info at a specific id offset in the vendor's product list\n     * @param _vendorId is the vendor id to query\n     * @param _index is the offset for product id\n     */\n    function vendorProductInfo(uint256 _vendorId, uint256 _index)\n            public view returns(uint256, uint256, uint256, uint256, string memory) {\n        return mainStorage.vendorProductInfo(_vendorId, _index);\n    }\n\n     /**\n     * @dev Get product vendor, spec count, license count, and name registered with the given id\n     * @param _prodID is product id\n     */\n    function productInfo(uint256 _prodID)\n            public view returns(uint256, uint256, uint256, uint256, string memory) {\n        return mainStorage.productInfo(_prodID);\n    }\n\n    /**\n     * @dev get license specification information based on its product and spec IDs\n     * @param _productID is the id for the product that owns the spec\n     * @param _specID is the license spec id\n     */\n    function licenseSpecsInfo(uint256 _productID, uint256 _specID)\n            public view returns(uint256, uint256, uint256, string memory) {\n        return mainStorage.licenseSpecsInfo(_productID, _specID);\n    }\n\n    /**\n     * @dev get license product ID, attributes, expiration, and issued block based on its id\n     * @param _licenseID is the license id to query\n    */\n    function licenseInfo(uint256 _licenseID)\n            public view returns(uint256, uint256, uint256, uint256) {\n        return mainStorage.licenseInfo(_licenseID);\n    }\n\n}\n\n",
  "sourcePath": "/Users/mdcoon/git/app_license_demo/packages/ald-contracts/contracts/LicenseMain.sol",
  "compiler": {
    "name": "solc",
    "version": "0.5.8+commit.23d335f2.Emscripten.clang"
  },
  "schemaVersion": "3.0.11",
  "updatedAt": "2019-08-13T21:25:07.044Z",
  "devdoc": {
    "methods": {
      "constructor": {
        "details": "init initializes the license management contract with an initial root vendor/product owned by the contract owner."
      },
      "findLicenseID(address,uint256,uint256)": {
        "details": "find a license ID held by the given address for the given product and license specification IDs. A non-zero return value indicates the user holds a license for the items, but the license needs to be verified for expiration, etc."
      },
      "generatePermissionHash(address,uint256)": {
        "details": "generatePermissionHash generates a unique hash that must be signed by the given user to verify license ownership.",
        "params": {
          "_licenseID": "is the license id that will be verified",
          "user": "is the user that will sign the returned hash"
        }
      },
      "isOwner()": {
        "details": "Returns true if the caller is the current owner."
      },
      "isRegisteredVendor(address)": {
        "details": "Check whether the given address belongs to a registered vendor"
      },
      "issueLicense(uint256,uint256)": {
        "details": "issue a new license for the caller for the given product based on the given license specification.",
        "params": {
          "_productID": "is the product id for which a license is being issued",
          "_specID": "is the specification for the license being purchased"
        }
      },
      "licenseInfo(uint256)": {
        "details": "get license product ID, attributes, expiration, and issued block based on its id",
        "params": {
          "_licenseID": "is the license id to query"
        }
      },
      "licenseSpecsInfo(uint256,uint256)": {
        "details": "get license specification information based on its product and spec IDs",
        "params": {
          "_productID": "is the id for the product that owns the spec",
          "_specID": "is the license spec id"
        }
      },
      "owner()": {
        "details": "Returns the address of the current owner."
      },
      "productInfo(uint256)": {
        "details": "Get product vendor, spec count, license count, and name registered with the given id",
        "params": {
          "_prodID": "is product id"
        }
      },
      "registerLicenseSpecs(uint256,uint256,string,uint256,uint256)": {
        "details": "register new license specs for a product. Caller must be a registered vendor that owns the given product."
      },
      "registerProduct(string)": {
        "details": "register a new product. Caller must be a valid vendor address."
      },
      "registerVendor(string)": {
        "details": "register a new vendor with the contract. Throws if address already registered as vendor."
      },
      "renounceOwnership()": {
        "details": "Leaves the contract without owner. It will not be possible to call `onlyOwner` functions anymore. Can only be called by the current owner.     * > Note: Renouncing ownership will leave the contract without an owner, thereby removing any functionality that is only available to the owner."
      },
      "transferOwnership(address)": {
        "details": "Transfers ownership of the contract to a new account (`newOwner`). Can only be called by the current owner."
      },
      "userHasValidLicense(address,uint256,uint256)": {
        "details": "check whether the given user has a valid license for the given product and specification IDs. NOTE: This does not authenticate the given address and only verifies that the address as an unexpired license for the given IDs. To authenticate user access, use the verifyLicense function instead."
      },
      "vendorInfo(address)": {
        "details": "get vendor information for a registered vendor with the given address",
        "params": {
          "_vendor": "is the vendor address"
        }
      },
      "vendorProductInfo(uint256,uint256)": {
        "details": "get vendor product info at a specific id offset in the vendor's product list",
        "params": {
          "_index": "is the offset for product id",
          "_vendorId": "is the vendor id to query"
        }
      },
      "verifyLicense(address,uint256,uint8,bytes32,bytes32)": {
        "details": "verify that an address, who signed the given token hash, owns a license for the given product/spec id combination. This will also verify that the license has not expired.",
        "params": {
          "_holder": "is the address to verify which must have also signed the given token",
          "_licenseID": "is the license ID to verify",
          "r": "is part of sig",
          "s": "is part of sig",
          "v": "is part of sig"
        }
      },
      "withdrawVendorBalance()": {
        "details": "withdraw license fees from vendor's account"
      }
    }
  },
  "userdoc": {
    "methods": {}
  }
}